:020000040000fa
:080000000002040000000000f2
:020000040000fa
:10000800ca060000ca060000ca060000ca060000a8
:10001800ca060000ca060000ca060000ca06000098
:10002800ca060000ca060000ca060000ca06000088
:10003800ca060000ca060000ca060000ca06000078
:10004800ca060000ca060000ca0600009a0200009c
:10005800ca060000d6020000ca060000ca06000050
:10006800ca060000ca060000ca060000ca06000048
:10007800ca060000ca060000ca060000ca06000038
:10008800ca060000ca060000ca060000ca06000028
:10009800ca060000ca060000ca060000ca06000018
:1000a800ca060000ca060000ca060000ca06000008
:1000b800ca060000ca060000ca060000ca060000f8
:1000c800ca060000ca060000ca060000ca060000e8
:1000d800ca060000ca060000ca060000ca060000d8
:1000e800ca060000ca060000ca060000ca060000c8
:1000f800ca060000ca060000ca060000ca060000b8
:10010800ca060000ca060000ca060000ca060000a7
:10011800ca060000ca060000ca060000ca06000097
:10012800ca060000ca060000ca060000ca06000087
:10013800ca060000ca060000ca060000ca06000077
:10014800ca060000ca060000ca060000ca06000067
:10015800ca060000ca060000ca060000ca06000057
:10016800ca060000ca060000ca060000ca06000047
:10017800ca060000ca060000ca060000ca06000037
:10018800ca060000ca060000ca060000ca06000027
:10019800ca060000ca060000ca060000ca06000017
:1001a800ca060000ca060000ca060000ca06000007
:1001b800ca060000ca060000ca060000ca060000f7
:1001c800ca060000ca060000ca060000ca060000e7
:1001d800ca060000ca060000ca060000ca060000d7
:1001e800ca060000ca060000ca060000ca060000c7
:0801f800ca060000ca0600005f
:020000040000fa
:10020800ca060000ca060000ca060000ca060000a6
:10021800ca060000ca060000ca060000ca06000096
:10022800ca060000ca060000ca060000ca06000086
:10023800ca060000ca060000ca060000ca06000076
:10024800ca060000ca060000ca0600009a0200009a
:10025800ca060000d6020000ca060000ca0600004e
:10026800ca060000ca060000ca060000ca06000046
:10027800ca060000ca060000ca060000ca06000036
:10028800ca060000ca060000ca060000ca06000026
:10029800ca060000ca060000ca060000ca06000016
:1002a800ca060000ca060000ca060000ca06000006
:1002b800ca060000ca060000ca060000ca060000f6
:1002c800ca060000ca060000ca060000ca060000e6
:1002d800ca060000ca060000ca060000ca060000d6
:1002e800ca060000ca060000ca060000ca060000c6
:1002f800ca060000ca060000ca060000ca060000b6
:10030800ca060000ca060000ca060000ca060000a5
:10031800ca060000ca060000ca060000ca06000095
:10032800ca060000ca060000ca060000ca06000085
:10033800ca060000ca060000ca060000ca06000075
:10034800ca060000ca060000ca060000ca06000065
:10035800ca060000ca060000ca060000ca06000055
:10036800ca060000ca060000ca060000ca06000045
:10037800ca060000ca060000ca060000ca06000035
:10038800ca060000ca060000ca060000ca06000025
:10039800ca060000ca060000ca060000ca06000015
:1003a800ca060000ca060000ca060000ca06000005
:1003b800ca060000ca060000ca060000ca060000f5
:1003c800ca060000ca060000ca060000ca060000e5
:1003d800ca060000ca060000ca060000ca060000d5
:1003e800ca060000ca060000ca060000ca060000c5
:0803f800ca060000ca0600005d
:020000040000fa
:100400008fc420000e7f22000e0188000000000033
:10041000000020000000e000020032000001200087
:10042000200288000c000700e08c20000100200062
:1004300011000700000020000000e0000200320070
:1004400000000200000000009e0502000000000005
:100450000040da000000fe004440a90040012000f6
:100460000000e0000300320000002000a00188002e
:100470004440a80000000600910188008000780038
:100480000000eb0015003700e280400032a0b4000d
:100490009101ba00e280400032a0b4009102ba009b
:1004a000e280400032a0b4000002eb00472bde00e7
:1004b000f507b200602ce10004003a000059eb009f
:1004c0008301e900fdff3e00040037006128e100e0
:1004d000010032000082eb00040007001101ba00a5
:1004e0000200e000e8ff3a00000006003159ba00bf
:1004f0008301e9000c0032002159ba008301e900b0
:10050000080032000400e00003003a00e2804000ee
:1005100032a0b400f5ff370011d9ba008301e90019
:10052000faff3a008100e800e180400032a0b40008
:1005300000000600849fbe00869fbe003400f800c5
:1005400004002000a40188000000fa008560a900d2
:1005500024842000144278008483fb00351180003d
:10056000054378002580200085824300864a780074
:100570000442e8000443780025842000864a78007d
:100580002484200014427800f443b200044378002d
:1005900025842000864a78000080fa003400f900a3
:1005a0004f03be004f02be0000400600849fbe0005
:1005b000861f78003400f80004002000a4018800a1
:1005c0000000fa0085a0a90005408000042020005a
:1005d000848f520002003a000002eb0004408800c1
:1005e0000440800005188000040342004484200079
:1005f00004024300050a7800044080000402e80079
:10060000044088000080fa003400f9004f037800ad
:100610004f02be00004006000400fa002047980088
:1006200084382100040f7800000000001e027800ca
:1006300004f0a7000402ea000402ea004f22de00f0
:10064000044278001e0fe900e04f5200f7ff3a0025
:100650008580a9002e4290000482fb0024118800ae
:100660000080fa00000006000200fa00000f780087
:10067000050037001e027800144278001e0fe800c3
:1006800004407800e4ff07001e027800144278005e
:10069000e04f5200f7ff3a000080fa000000060029
:1006a0000a00fa0030079800410798003e029000c7
:1006b000ce029000a2002000030020000400be0033
:1006c000340207000002be00044f78003e02900092
:1006d000ce029000a2002000030020000400be0013
:1006e0001c0207000002be0034079800450798006e
:1006f0003e029000ce029000a200200003002000e5
:100700000400be00230207000002be001447980048
:100710003e029000ce029000a200200003002000c4
:100720000400be000b0207000002be003407980060
:10073000450798003e029000ce029000a2002000e3
:10074000030020000400be00120207000002be00e9
:10075000244798003e029000ce029000a2002000a4
:10076000030020000400be00fa0107000002be00e2
:1007700034079800450798003e029000ce02900092
:10078000a2002000030020000400be0001020700b8
:100790000002be00344798003e029000ce02900056
:1007a000a2002000030020000400be00e9010700b1
:1007b0000002be0034079800450798003e029000f2
:1007c000ce029000a2002000030020000400be0022
:1007d000f00107000002be00444798004e4290001e
:1007e0000443b000044078008bff0700e0c2b30070
:1007f00089ff07003e4290000443b00004407800a7
:1008000085ff07002e4290000443b00004407800aa
:1008100081ff07001e4290000443b00004407800ae
:100820007dff070005c3b3001ec2420004407800ec
:1008300079ff070060c5b30077ff07000080fa006a
:10084000000006000800fa00200798003107980011
:100850002e029000be029000a200200003002000a3
:100860000400be00cb0107000002be00044f780068
:100870002e029000be029000a20020000300200083
:100880000400be00b30107000002be002407980068
:10089000350798002e029000be029000a2002000b2
:1008a000030020000400be00ba0107000002be00e1
:1008b000144798002e029000be029000a200200073
:1008c000030020000400be00a20107000002be00d9
:1008d00024079800350798002e029000be02900071
:1008e000a2002000030020000400be00a9010700b0
:1008f0000002be00244798002e029000be02900025
:10090000a2002000030020000400be0091010700a7
:100910000002be0024079800350798002e029000c0
:10092000be029000a2002000030020000400be00d0
:10093000980107000002be00344798003e42900034
:100940000443b0000440780033ff07002e429000bb
:100950000443b000044078002fff07001e429000bf
:100960000443b000044078002bff0700e0c2b3004e
:1009700029ff070005c3b3001ec2420004407800ef
:1009800025ff0700d0c6b30023ff070060c5b300f2
:1009900021ff07000080fa00000006000000fa00b6
:1009a000243a80000480a1000490a10004a0a100ca
:1009b000243a8800f4ff2900641988000002eb0043
:1009c000041988000002eb00141988000002eb00f3
:1009d00024198800c002a800c022a8002c03a90086
:1009e0002c23a9000002eb00841988003003a80022
:1009f0003023a8000002eb004419880014c0b300a3
:100a00000443780045322000864a7800251980008a
:100a1000f40f2e0084826200041020000502720090
:100a200024198800141980000420a0000430a000bc
:100a30000440a0000450a10014198800041980008b
:100a40000450a1000460a0000470a10004198800f3
:100a50002043a80021e3a800540580000440a10021
:100a60000450a0000460a0005405880085a0a900df
:100a700095a0a8000002eb0094088800f401200073
:100a80007408880013e1a8000002eb0054088800f5
:100a90008500a9000002eb000411880084002000fa
:100aa000441188002062a900041180000480a10084
:100ab0000490a1000411880021e2a8002342a800ac
:100ac000153a8000f40b20000483620064042000c7
:100ad0007505200027742000844b7800854b780032
:100ae000864b780015368000f40f2e008482620059
:100af000043020000502720014368800253580007d
:100b000004fe2f00048262006400b30024358800d4
:100b1000153a8000040420000503720064042000dc
:100b20007505200027742000844b7800854b7800e1
:100b3000864b78000080fa00000006001200fa00e0
:100b400070079800010f980094ff0700d0c0b30011
:100b5000b1fe0700a0c0b300affe0700a48b2800c1
:100b600004007800c0fe0700d0c0b300aafe070052
:100b7000a0c0b300a8fe07002023a8000002eb00dd
:100b8000441988006022b80054079800650798004f
:100b90005e029000ee029000048fbe001e02be00b6
:100ba00024079800350798000002eb0044079800de
:100bb0000b0037004e029000840242004484200063
:100bc0000482420014027800050020001e0f42003b
:100bd0005e974a004e0290000402e8004407980025
:100be000ce029000f41f2000848f5200f1ff3400e9
:100bf0001e02be00e00f5200e08f5a0002003d00ce
:100c00006f024200e0824a004c2bdd004422de00ed
:100c100004027300c4aade000400be00a0fe0700a8
:100c20001e02be00e00f5200e08f5a0002003d009d
:100c3000f41fb0000580b000472bdd004922de0024
:100c400004027300c9aade005407980065079800e3
:100c5000a48c28000400780083fe07000002eb004b
:100c600044079800270037004e029000840242009b
:100c70004484200004824200140278000500200011
:100c80005e039000ee0390000403530085835b0035
:100c90004e029000840242004484200004824200fc
:100ca00014027800050020005e009000ee00900025
:100cb000040250008582580004b8b9000000780092
:100cc00006a9b90082007800010040000603780000
:100cd000040278000432b800050040008002780069
:100ce0002e039000be0390000602420087824a0055
:100cf00024079800350798004e0290000402e8008f
:100d000044079800ce029000f41f2000848f520008
:100d1000d5ff34002e009000be0090004000070078
:100d20000002be000400be00550007000002be0025
:100d30000400be00190007000002be00240798004e
:100d4000350798002e029000be029000e00f52007e
:100d5000e08f5a0002003d006f024200e0824a002c
:100d60004c2bdd004422de0004027300c4aade0026
:100d700024079800350798002e029000be029000cc
:100d80000400be00affe0700d0c0b30022fe070083
:100d90007cff37000040da000000fe000001be00ca
:100da000220007000470a70003f0a1006509b1004c
:100db000160032000d0035006828e10006003500fd
:100dc000f0ff2f00f1ff27000300e00013003b00bd
:100dd000010028000000050000004000818048005c
:100de0008502e900fcff3a0008003700f88f420056
:100df00002003c008000eb00000005008100d100f3
:100e00000080d3008502e800fcff3a000300e00008
:100e100002003b0060001000e080180000000600a7
:100e20004f89de00820178005d003700c70ade00ce
:100e3000f107b200f50fb20008003200e1cf420026
:100e4000020032000170a00024000500810f700034
:100e5000010032000408050044000500810f700005
:100e600002003a00140005008502e900000040007d
:100e700081c04800fcff3b000170a0002400050079
:100e8000889fbe008a9fbe008c1f78000004be00b1
:100e9000e6ff07000478a30026003a006120e10085
:100ea0002500320009f8a30025003a006420e10083
:100eb00021003200f507b1000508a300020032004e
:100ec00000004000818048006044b800031020000a
:100ed0000200200000004000818048000805440016
:100ee00089854c000a0541008b8549000a055000a0
:100ef0008b855800030033000a00be000204740012
:100f0000838474008301d1000281d300830f7100b8
:100f1000f0ff3a008904d1000884d3006001490041
:100f200082017800c1adde00fb07b0005b00070066
:100f3000890037000960a0000800be008600370065
:100f40001202200032628800f0ff2f00f1ff27001c
:100f5000810037006022b800060220000000d000a7
:100f60008180d2000482d2008582d2000000a000dd
:100f70000202520083825a00030031000202420042
:100f800083824a000000a1000603e900f3ff3a0053
:100f900000000600efff07000400be00000006008e
:100fa000881f7800030478000300e00007003d007c
:100fb00060001000e080180060011900e081190055
:100fc00002003b0001f02d00030037000400070081
:100fd00008f0a70001f0a0004f0478000000060010
:100fe000889fbe008a9fbe000082700004027100cc
:100ff00004827100260032000004be000200be0020
:101000006011b8006b092000950220000182cf001a
:101010000a0039000541b1000082cf000700390005
:101020000541b1000982cf00040039000541b1003b
:101030000882cf00010039000541b100054252008d
:10104000120032000a003b008281710061016400dd
:101050008100d1000080d3008984d3000884d300ac
:101060008b05e8000442e800f7ff3a00070037006c
:101070000804440089844c00000048008180480036
:101080008b05e9000442e900f9ff3a00030007007c
:101090004f05be004f04be00000006008100200086
:1010a000618055000b003d000b00200061fe2f0009
:1010b0000100e1001d0034008281710061016400c3
:1010c0008904d1000884d3000000e800faff3a0048
:1010d00071002000610064000300700002006000e5
:1010e0000900320061044400e0844c000988a50036
:1010f000050032008b05e8006808e10002003a00b4
:101100008904d1000884d300f20f20000258e100c6
:1011100005003d00c75ddd00f907b200898075005c
:1011200008007800000006000bf827008b0078000c
:10113000000005000200be006450e100050036001a
:101140006420e100020036000968a30001003a00b3
:101150000800be000160a0004f0678004f05be00e9
:101160004f04be0000000600f0ff2f00f1ff270033
:04117000f9ff37004c
:020000040000fa
:10117400566f00006c740000616700006509000090
:101184000953000074640000446500007600000008
:08119400090900000000000041
:020000040000fa
:10119c00000800004604000000000000460c00009f
:0c11ac0002000000000000000000000035
:020000040000fa
:020000040001f9
:0457f8000ff90000a5
:020000040000fa
:020000040001f9
:0457fc007f3f0000eb
:00000001FF
