:020000040000FA
:0600000085EF04F0120080
:020006000000F8
:0600080007EF00F01200FA
:02000E00DACF47
:10001000E4FFE2CFDAFFE9CFE4FFEACFE4FFF6CF77
:10002000E4FFF7CFE4FFF5CFE4FFF3CFE4FFF4CF35
:10003000E4FFFACFE4FF00EE00F0020EE80403E371
:10004000EECFE4FFFBD700EE02F0020EE80403E37C
:10005000EECFE4FFFBD7E6526D98A19A68A67DD05B
:100060006CB46FD004010051E840E8403F0B0F0B27
:10007000010A46E00C0A52E1ACA2FED7530EAD6E67
:10008000ACA2FED7540EAD6EACA2FED7500EAD6E34
:10009000ACA2FED72D0EAD6E2BD9060E0501015D6B
:1000A0001CE1ACA2FED7470EAD6EACA2FED7450E4A
:1000B000AD6EACA2FED7540EAD6EACA2FED7440E10
:1000C000AD6EACA2FED7450EAD6EACA2FED7560EFD
:1000D000AD6EACA2FED72D0EAD6EACA2FED7050163
:1000E00006390F0BE66E08EC04F0E552AD6EACA2DB
:1000F000FED70F0E05010615E66E8ADBE5520BD022
:10010000ACA2FED74F0EAD6EACA2FED7550EAD6EB3
:10011000ACA2FED7540EAD6EF9D80CD0ACA2FED76F
:1001200004010051E840E8403F0B0F0BE66E70DB26
:10013000E552AD6EE3D9040100B7FDD7800E006F24
:100140000BD004010451E840E8403F0B0F0B090AB3
:1001500004B7FED7800E046F689668A015D0ACA2D5
:10016000FED7520EAD6EACA2FED7530EAD6EACA252
:10017000FED7540EAD6EACA2FED70A0EAD6EACA289
:10018000FED70D0EAD6E689068BC689C68A205D065
:10019000ACA2FED7450EAD6E6892E55200EE03F0BC
:1001A000020EE80403E3E5CFEDFFFBD700EE01F01C
:1001B000020EE80403E3E5CFEDFFFBD7E5CFFAFF3E
:1001C000E5CFF4FFE5CFF3FFE5CFF5FFE5CFF7FF90
:1001D000E5CFF6FFE5CFEAFFE5CFE9FFE5CFDAFFB0
:1001E0001100D9CFE6FFE1CFD9FF170EE126550E5A
:1001F000F36E070EF3CFDBFF530EF36E080EF3CF53
:10020000DBFF420EF36E090EF3CFDBFF200EF36E21
:100210000A0EF3CFDBFF460EF36E0B0EF3CFDBFFC0
:10022000690EF36E0C0EF3CFDBFF720EF36E0D0E44
:10023000F3CFDBFF6D0EF36E0E0EF3CFDBFF770E09
:10024000F36E0F0EF3CFDBFF610EF36E100EF3CFE4
:10025000DBFF720EF36E110EF3CFDBFF650EF36E54
:10026000120EF3CFDBFF200EF36E130EF3CFDBFF86
:100270004C0EF36E140EF3CFDBFF610EF36E150E12
:10028000F3CFDBFF620EF36E160EF3CFDBFFCD6A0A
:10029000926A936A946A956A966A926A816A826A95
:1002A000836A846A0F0EC16E3AD830D8DE6ADD6A7E
:1002B000DECF02F0DDCF03F0100E025C000E03581B
:1002C00014E2ACA2FED7D950070F026EDACF03F0CA
:1002D000DE500224E96EDD500320EA6EEF50AD6E71
:1002E000DF2A010EE5E3DB2AE3D710D825D8FFD7B4
:1002F0000601120E006F010E016F026B020E036FFA
:10030000046B056B066B400E076F1200ACA2FED7A4
:100310000A0EAD6EACA2FED70D0EAD6E1200C00E71
:100320009410946E9D989D9A1A0EAF6E260EAC6E28
:10033000900EAB6EB8961200F28EF28C6F886F84BE
:10034000FC0E6F16A08AA19A6890689669866980EB
:10035000689C698C6D98689269820401400E016FF7
:10036000026B050E036F006B400E056F066B060EE9
:10037000076F046B008F048F160E706E6D8612006F
:10038000D9CFE6FFE1CFD9FF020EE126ACA2FED71E
:10039000420EAD6EACA2FED7750EAD6EACA2FED70E
:1003A000660EAD6EACA2FED7540EAD6EACA2FED7FB
:1003B000780EAD6EACA2FED7200EAD6EDE6ADD6AA1
:1003C000DECF02F0DDCF03F0D890035004E6080E34
:1003D000025C000E035829E2ACA2FED7DECFE9FF93
:1003E000DDCFEAFF000EE926050EEA22EF380F0BFB
:1003F000E66E0EDAE552AD6EACA2FED7DECFE9FFB7
:10040000DDCFEAFF000EE926050EEA22EF500F0BC2
:10041000E66EFED9E552AD6EACA2FED7200EAD6EF3
:10042000DF2A010ECDE3DB2ACBD7020EE15C02E22C
:10043000E16AE552E16EE552E7CFD9FF1200D9CF6C
:10044000E6FFE1CFD9FF020EE126ACA2FED7420EB5
:10045000AD6EACA2FED7750EAD6EACA2FED7660E29
:10046000AD6EACA2FED7540EAD6EACA2FED7780E28
:10047000AD6EACA2FED7200EAD6EDE6ADD6ADECFB9
:1004800002F0DDCF03F0D890035004E6080E025CC2
:10049000000E035829E2ACA2FED7DECFE9FFDDCF84
:1004A000EAFF000EE926060EEA22EF380F0BE66E91
:1004B000AFD9E552AD6EACA2FED7DECFE9FFDDCFFE
:1004C000EAFF000EE926060EEA22EF500F0BE66E59
:1004D0009FD9E552AD6EACA2FED7200EAD6EDF2ADD
:1004E000010ECDE3DB2ACBD7020EE15C02E2E16A2A
:1004F000E552E16EE552E7CFD9FF1200D9CFE6FF12
:10050000E1CFD9FF020EE12601DF3ADFFFDE97DF00
:10051000FDDEACA2FED7550EAD6EACA2FED7430EEB
:10052000AD6EACA2FED74F0EAD6EACA2FED74E0E96
:10053000AD6EACA2FED7200EAD6EACA2FED76D386C
:100540000F0BE66E65D9E552AD6EACA2FED70F0E6D
:100550006D14E66E5DD9E552AD6EACA2FED7200EED
:10056000AD6EACA2FED7550EAD6EACA2FED7530E4B
:10057000AD6EACA2FED7540EAD6EACA2FED7410E4E
:10058000AD6EACA2FED7540EAD6EACA2FED7200E5F
:10059000AD6EACA2FED76C380F0BE66E39D9E552C2
:1005A000AD6EACA2FED70F0E6C14E66E31D9E552DB
:1005B000AD6EACA2FED7200EAD6EACA2FED7550E2E
:1005C000AD6EACA2FED7450EAD6EACA2FED7500EFE
:1005D000AD6EACA2FED7300EAD6EACA2FED7200E33
:1005E000AD6EACA2FED770380F0BE66E11D9E55296
:1005F000AD6EACA2FED70F0E7014E66E09D9E552AF
:10060000AD6E84DEACA2FED7420EAD6EACA2FED7BC
:10061000440EAD6EACA2FED7300EAD6EACA2FED7CE
:10062000530EAD6EACA2FED7540EAD6EACA2FED78B
:10063000410EAD6EACA2FED7540EAD6EACA2FED78D
:100640005F0EAD6EACA2FED74F0EAD6EACA2FED764
:10065000550EAD6EACA2FED7540EAD6EACA2FED759
:10066000200EAD6EACA2FED7040100390F0BE66E72
:10067000CFD8E552AD6EACA2FED70F0E0401001527
:10068000E66EC6D8E552AD6E41DEACA2FED7420E94
:10069000AD6EACA2FED7440EAD6EACA2FED7300E4E
:1006A000AD6EACA2FED7430EAD6EACA2FED74E0E21
:1006B000AD6EACA2FED7540EAD6EACA2FED75F0EEF
:1006C000AD6EACA2FED74F0EAD6EACA2FED7550EEE
:1006D000AD6EACA2FED7540EAD6EACA2FED7200E0E
:1006E000AD6EACA2FED7040101390F0BE66E90D8B7
:1006F000E552AD6EACA2FED70F0E04010115E66EF9
:1007000087D8E552AD6E02DEACA2FED7420EAD6ECA
:10071000ACA2FED7440EAD6EACA2FED7300EAD6ECD
:10072000ACA2FED7530EAD6EACA2FED7540EAD6E8A
:10073000ACA2FED7410EAD6EACA2FED7540EAD6E8C
:10074000ACA2FED75F0EAD6EACA2FED7490EAD6E69
:10075000ACA2FED74E0EAD6EACA2FED7200EAD6E93
:10076000ACA2FED7040104390F0BE66E51D8E55256
:10077000AD6EACA2FED70F0E04010415E66E48D88C
:10078000E552AD6EC3DDACA2FED7420EAD6EACA29B
:10079000FED7440EAD6EACA2FED7300EAD6EACA24D
:1007A000FED7430EAD6EACA2FED74E0EAD6EACA220
:1007B000FED7540EAD6EACA2FED75F0EAD6EACA2EE
:1007C000FED7490EAD6EACA2FED74E0EAD6EACA2FA
:1007D000FED7200EAD6EACA2FED7040105390F0B7B
:1007E000E66E16D8E552AD6EACA2FED70F0E040130
:1007F0000515E66E0DD8E552AD6E88DD020EE15CA2
:1008000002E2E16AE552E16EE552E7CFD9FF12005C
:10081000D9CFE6FFE1CFD9FFFE0EDB500F0BE76E1D
:10082000FE0EE7CFDBFF0A0EF36EFE0EDBCFF4FF0A
:10083000F350F45C04E2FE0EDB50300F03D0FE0EEA
:0C084000DB50370FE552E7CFD9FF120064
:04084C00060EF66E30
:10085000000EF76E000EF86E00010900F550656F8E
:100860000900F550666F03E1656701D03DD00900CE
:10087000F550606F0900F550616F0900F550626F27
:1008800009000900F550E96E0900F550EA6E09000B
:1008900009000900F550636F0900F550646F090005
:1008A0000900F6CF67F0F7CF68F0F8CF69F060C0C5
:1008B000F6FF61C0F7FF62C0F8FF0001635302E179
:1008C000645307E00900F550EE6E6307F8E2640731
:1008D000F9D767C0F6FF68C0F7FF69C0F8FF0001ED
:0A08E0006507000E665BBFD712002B
:0608EA00000EF36E00EEAB
:1008F00000F0080E01D81200EA6002D0EE6AFCD7C0
:0A090000F350E9601200EE6AFCD724
:06090A0013EE00F023EEE5
:1009100000F0F86A019C26EC04F093EC04F0F1EC92
:0609200000F0FBD71200FD
:020926001200BD
:020000040030CA
:0100000024DB
:010001000EF0
:010002003FBE
:010003001EDE
:010005008179
:010006008178
:010008000FE8
:01000900C036
:01000A000FE6
:01000B00E014
:01000C000FE4
:01000D0040B2
:00000001FF
