:020000040000fa
:080000000002040000000000f2
:020000040000fa
:100008009a0200009a0200009a0200009a02000078
:100018009a0200009a0200009a0200009a02000068
:100028009a0200009a0200009a0200009a02000058
:100038009a0200009a0200009a0200009a02000048
:020000040000fa
:020000040000fa
:100400002f8020000e7f22000e01880000000000d7
:10041000000020000000e000020032000001200087
:10042000200288000c00070020312000010020007d
:1004300011000700000020000000e0000200320070
:1004400000000200000000009e0202000000000008
:100450000040da000000fe004440a9000000200037
:100460000000e0000300320000002000a00188002e
:100470004440a80000000600910188008000780038
:100480000000eb0015003700e280400032a0b4000d
:100490009101ba00e280400032a0b4009102ba009b
:1004a000e280400032a0b4000002eb00472bde00e7
:1004b000f507b200602ce10004003a000059eb009f
:1004c0008301e900fdff3e00040037006128e100e0
:1004d000010032000082eb00040007001101ba00a5
:1004e0000200e000e8ff3a00000006003159ba00bf
:1004f0008301e9000c0032002159ba008301e900b0
:10050000080032000400e00003003a00e2804000ee
:1005100032a0b400f5ff370011d9ba008301e90019
:10052000faff3a008100e800e180400032a0b40008
:0c053000000006000040da000000fe00a1
:020000040000fa
:10053c000000fa00243a80000480a1000490a1007d
:10054c0004a0a100243a8800f4ff29006419880053
:10055c00c842a900c862a9000002eb00541688002a
:10056c000002eb0024088800240880000440a1004d
:10057c000450a00024088800741a2600140888006f
:10058c008460a9000002eb000408880005e1a800c3
:10059c00000000002404800068026200e00f52009a
:1005ac00fcff32008460a9000002eb0004408800cc
:1005bc001400200004408800641680004322de00f2
:1005cc00614262000404a200614262000482fb00ea
:1005dc00610262004322dd006616800075ff2f0069
:1005ec0085026300050272006416880004408000d6
:1005fc000402e800044088000540800054002000fc
:10060c00110009008482d80001027800044088009f
:08061c0000000000dfff3700c1
:020000040000fa
:1006240000080000020000000000000000000000bc
:020000040000fa
:020000040001f9
:0457f8002ff9000085
:020000040000fa
:020000040001f9
:0457fc007f3f0000eb
:00000001FF
