:020000040000FA
:06000000A5EF01F0120063
:020006000000F8
:08000800D8CFE4FFE0CFE4FFD4
:10001000E46EDACFE4FFE2CFDAFFE9CFE4FFEACF24
:10002000E4FFF6CFE4FFF7CFE4FFF5CFE4FFF3CF33
:10003000E4FFF4CFE4FFFACFE4FF00EE00F0020E9D
:10004000E80403E3EECFE4FFFBD700EE04F0000E7C
:10005000E80403E3EECFE4FFFBD7E6529EAA0DD0FF
:10006000AECF8AF0000000008AC0E6FF010EE66E07
:1000700067D8E552E5528AC0ADFFE55200EE03F0C5
:10008000000EE80403E3E5CFEDFFFBD700EE01F03F
:10009000020EE80403E3E5CFEDFFFBD7E5CFFAFF5F
:1000A000E5CFF4FFE5CFF3FFE5CFF5FFE5CFF7FFB1
:1000B000E5CFF6FFE5CFEAFFE5CFE9FFE5CFDAFFD1
:1000C000E550E5CFE0FFE5CFD8FF1000D9CFE6FF40
:1000D000E1CFD9FFE65200018B6B936A816850D85B
:1000E000FFD7E552E552E7CFD9FF1200D9CFE6FF9F
:1000F000E1CFD9FFE652FE0EDB5002E08C8801D042
:100100008C988C9C8C9A8C50DF6E000EDF90DF9266
:10011000DF94DF96FD0EDB500F0BDF108C6E010EAF
:10012000E66EC1EC01F0E5528C8C010EE66EC1EC7E
:1001300001F0E5528C9CE552E552E7CFD9FF120061
:10014000D9CFE6FFE1CFD9FFFD0EDB380F0BE66E0E
:10015000FE0EDBCFE6FFCADFE552E552020EE66E89
:10016000B3EC01F0E552FD0EDBCFE6FFFE0EDBCF78
:10017000E6FFBCDFE552E552E552E7CFD9FF1200BA
:10018000956A836A839C8398030EE66EB3EC01F054
:10019000E552838E060EE66E7EEC01F0E552030E0C
:1001A000E66EE66AA3DFE552E552020EE66E7EECED
:1001B00001F0E552030EE66EE66A98DFE552E5527D
:1001C000040EE66EB3EC01F0E552030EE66EE66A4D
:1001D0008DDFE552E552020EE66EB3EC01F0E5521A
:1001E000020EE66EE66A82DFE552E552020EE66E28
:1001F000B3EC01F0E552280EE66EE66AA1DFE552A7
:10020000E552020EE66EB3EC01F0E5520E0EE66E1C
:10021000E66A96DFE552E552020EE66EB3EC01F0B7
:10022000E552060EE66EE66A8BDFE552E552020EF7
:10023000E66EB3EC01F0E552AC6AAB6A0C0EAF6E41
:10024000AC98AB8EAC8AAB88B896AC84F28EF28C4C
:0E0250009D8A9D98AC9CAB9C949C948E120051
:02025E00060E8A
:10026000F66E000EF76E000EF86E00010900F550F4
:10027000856F0900F550866F03E1856701D03DD099
:100280000900F550806F0900F550816F0900F550A5
:10029000826F09000900F550E96E0900F550EA6E19
:1002A000090009000900F550836F0900F550846FBB
:1002B00009000900F6CF87F0F7CF88F0F8CF89F072
:1002C00080C0F6FF81C0F7FF82C0F8FF00018353B2
:1002D00002E1845307E00900F550EE6E8307F8E26F
:1002E0008407F9D787C0F6FF88C0F7FF89C0F8FFF9
:0C02F00000018507000E865BBFD71200DE
:0402FC00FF0EE350BE
:10030000036EEF0E01D0F30EE76EE72E85EF01F0DE
:100310000C0E026EE76AE72E8BEF01F0022E8AEFD9
:0A03200001F0032E83EF01F012003C
:06032A00000EF36E00EE70
:1003300000F0060E01D81200EA6002D0EE6AFCD787
:0A034000F350E9601200EE6AFCD7EA
:06034A0015EE00F025EEA7
:1003500000F0F86A019C2FEC01F0CCEC01F066ECA7
:0603600000F0FBD71200C3
:0A036600FF0EE350036E1B0E00D0E3
:1003700001D0200EE76EE72EFED7032EFAD700D06D
:02038000120069
:0E038200FF0EE350E84E1200000000D000D045
:0803900000D0E82EFAD712009C
:02039800120051
:00000001FF
