:020000040000fa
:080000000002040000000000f2
:020000040000fa
:100008002a0300002a0300002a0300002a03000034
:100018002a0300002a0300002a0300002a03000024
:100028002a0300002a0300002a0300002a03000014
:100038002a0300002a0300002a0300009a02000095
:100048002a0300002a0300002a0300002a030000f4
:100058002a0300002a0300002a0300002a030000e4
:100068002a0300002a0300002a0300002a030000d4
:100078002a0300002a0300002a0300002a030000c4
:100088002a0300002a0300002a0300002a030000b4
:100098002a0300002a0300002a0300002a030000a4
:1000a8002a0300002a0300002a0300002a03000094
:1000b8002a0300002a0300002a0300002a03000084
:1000c8002a0300002a0300002a0300002a03000074
:1000d8002a0300002a0300002a0300002a03000064
:1000e8002a0300002a0300002a0300002a03000054
:1000f8002a0300002a0300002a0300002a03000044
:100108002a0300002a0300002a0300002a03000033
:100118002a0300002a0300002a0300002a03000023
:100128002a0300002a0300002a0300002a03000013
:100138002a0300002a0300002a0300002a03000003
:100148002a0300002a0300002a0300002a030000f3
:100158002a0300002a0300002a0300002a030000e3
:100168002a0300002a0300002a0300002a030000d3
:100178002a0300002a0300002a0300002a030000c3
:100188002a0300002a0300002a0300002a030000b3
:100198002a0300002a0300002a0300002a030000a3
:1001a8002a0300002a0300002a0300002a03000093
:1001b8002a0300002a0300002a0300002a03000083
:1001c8002a0300002a0300002a0300002a03000073
:1001d8002a0300002a0300002a0300002a03000063
:1001e8002a0300002a0300002a0300002a03000053
:0801f8002a0300002a030000a5
:020000040000fa
:100208002a0300002a0300002a0300002a03000032
:100218002a0300002a0300002a0300002a03000022
:100228002a0300002a0300002a0300002a03000012
:100238002a0300002a0300002a0300009a02000093
:100248002a0300002a0300002a0300002a030000f2
:100258002a0300002a0300002a0300002a030000e2
:100268002a0300002a0300002a0300002a030000d2
:100278002a0300002a0300002a0300002a030000c2
:100288002a0300002a0300002a0300002a030000b2
:100298002a0300002a0300002a0300002a030000a2
:1002a8002a0300002a0300002a0300002a03000092
:1002b8002a0300002a0300002a0300002a03000082
:1002c8002a0300002a0300002a0300002a03000072
:1002d8002a0300002a0300002a0300002a03000062
:1002e8002a0300002a0300002a0300002a03000052
:1002f8002a0300002a0300002a0300002a03000042
:100308002a0300002a0300002a0300002a03000031
:100318002a0300002a0300002a0300002a03000021
:100328002a0300002a0300002a0300002a03000011
:100338002a0300002a0300002a0300002a03000001
:100348002a0300002a0300002a0300002a030000f1
:100358002a0300002a0300002a0300002a030000e1
:100368002a0300002a0300002a0300002a030000d1
:100378002a0300002a0300002a0300002a030000c1
:100388002a0300002a0300002a0300002a030000b1
:100398002a0300002a0300002a0300002a030000a1
:1003a8002a0300002a0300002a0300002a03000091
:1003b8002a0300002a0300002a0300002a03000081
:1003c8002a0300002a0300002a0300002a03000071
:1003d8002a0300002a0300002a0300002a03000061
:1003e8002a0300002a0300002a0300002a03000051
:0803f8002a0300002a030000a3
:020000040000fa
:100400000f8020000e7f22000e01880000000000f7
:10041000000020000000e000020032000001200087
:10042000200288000c000700e032200001002000bc
:1004300011000700000020000000e0000200320070
:100440000000020000000000240302000000000081
:100450000040da000000fe004440a9000000200037
:100460000000e0000300320000002000a00188002e
:100470004440a80000000600910188008000780038
:100480000000eb0015003700e280400032a0b4000d
:100490009101ba00e280400032a0b4009102ba009b
:1004a000e280400032a0b4000002eb00472bde00e7
:1004b000f507b200602ce10004003a000059eb009f
:1004c0008301e900fdff3e00040037006128e100e0
:1004d000010032000082eb00040007001101ba00a5
:1004e0000200e000e8ff3a00000006003159ba00bf
:1004f0008301e9000c0032002159ba008301e900b0
:10050000080032000400e00003003a00e2804000ee
:1005100032a0b400f5ff370011d9ba008301e90019
:10052000faff3a008100e800e180400032a0b40008
:1005300000000600849fbe003400f8000400200084
:10054000a40188000000fa0084e0a900050c8000e6
:1005500004c8200004824200040c8800050c8000be
:10056000f4832300848f520002003600f4632000dd
:10057000040c8800000000000080fa003400f9003c
:100580004f02be00004006000000fa00153a80004d
:10059000f40b200004836200640420007505200031
:1005a00027742000844b7800854b7800864b7800b8
:1005b00015368000f40f2e00848262000420210092
:1005c0000502720014368800153a800004042000e9
:1005d00005037200640420007505200027742000c4
:1005e000844b7800854b7800864b78000002eb0046
:1005f00084088800f4e72300640888000002eb0008
:100600003408880084e0a9000002eb00240c880074
:100610008440a900f4632000140c8800f42b21000e
:10062000040c88008461a900240c80000400a1004f
:100630000410a0000420a000240c880011e1a800f0
:100640000080fa00000006000000fa00ceff07005c
:0c065000ffff37000040da000000fe0051
:020000040000fa
:04065c00000000009a
:020000040000fa
:020000040001f9
:0457f8002ff9000085
:020000040000fa
:020000040001f9
:0457fc007f3f0000eb
:00000001FF
