:020000040000fa
:080000000002040000000000f2
:020000040000fa
:100008009a0200009a0200009a0200009a02000078
:100018009a0200009a0200009a0200009a02000068
:100028009a0200009a0200009a0200009a02000058
:100038009a0200009a0200009a0200009a02000048
:020000040000fa
:020000040000fa
:100400000f8020000e7f22000e01880000000000f7
:10041000000020000000e000020032000001200087
:10042000200288000c000700805d200001002000f1
:1004300011000700000020000000e0000200320070
:100440000000020000000000a00402000000000004
:100450000040da000000fe004440a9000000200037
:100460000000e0000300320000002000a00188002e
:100470004440a80000000600910188008000780038
:100480000000eb0015003700e280400032a0b4000d
:100490009101ba00e280400032a0b4009102ba009b
:1004a000e280400032a0b4000002eb00472bde00e7
:1004b000f507b200602ce10004003a000059eb009f
:1004c0008301e900fdff3e00040037006128e100e0
:1004d000010032000082eb00040007001101ba00a5
:1004e0000200e000e8ff3a00000006003159ba00bf
:1004f0008301e9000c0032002159ba008301e900b0
:10050000080032000400e00003003a00e2804000ee
:1005100032a0b400f5ff370011d9ba008301e90019
:10052000faff3a008100e800e180400032a0b40008
:0c053000000006000040da000000fe00a1
:020000040000fa
:10053c000200fa00000f7800000000002504800083
:10054c000400210004826200e00f5200fbff320025
:10055c008580a9001e027800241188000080fa0012
:10056c00000006000200fa000000000025048000d4
:10057c000480200004826200e00f5200fbff320076
:10058c0034118000040f78008560a9001e027800e9
:10059c00040078000080fa00000006000200fa0057
:1005ac00004f78001e4278006f4f62001e427800a8
:1005bc00e94f5200020036001e427800674f42009d
:1005cc0004c3b3001e4f42001e4278000440780062
:1005dc000080fa00000006000600fa0020079800d0
:1005ec0000032000d2ff070080072000d0ff070087
:1005fc002e0290000442780004407800e7ff0700c8
:10060c0000427800044f78002e0290004422de0055
:10061c00240798002e0290000442780004407800d1
:10062c00deff070000427800144798002e0290006d
:10063c004422de00240798002e0290000442780029
:10064c0004407800d5ff070000427800244798004a
:10065c002e0290004422de00240798002e02900007
:10066c000442780004407800ccff07000042780078
:10067c00344798003e4290000482fb00040078004e
:10068c00abff07002e4290000482fb0004007800b0
:10069c00a7ff07001e4290000482fb0004007800b4
:1006ac00a3ff07009e4278000582fb00040078003f
:1006bc009fff07000080fa00000006000000fa000f
:1006cc00243a80000480a1000490a10004a0a100a1
:1006dc00243a8800f4ff2900641988000082eb009a
:1006ec00541688000002eb00041988000002eb008d
:1006fc00441988002c03a9002c23a9002c43a90021
:10070c002c63a9000002eb001419880014c0b3007c
:10071c000443780045322000864a780025e3a9007e
:10072c0025198000f40f2e00848262000430200012
:10073c000502720024198800441980000400a100ed
:10074c000410a1000420a1000430a1004419880069
:10075c00041980000450a0000460a0000470a000e4
:10076c00041988002043a90021e3a8000002eb0033
:10077c00041188002062a90074062000441188002e
:10078c00041180000480a1000490a10004118800d1
:10079c0021e2a8002342a800153a8000f40b2000a7
:1007ac000483620064042000750520002774200077
:1007bc00844b7800854b7800864b7800253580007b
:1007cc0004fe2f00048262006400b300243588000c
:1007dc0015368000f40f2e00848262000430200055
:1007ec000502720014368800153a800004042000bb
:1007fc000503720064042000750520002774200096
:10080c00844b7800854b7800864b78000080fa008a
:10081c00000006000600fa0020079800ae029000c7
:10082c00a4002000110009008482d8000102780085
:10083c0004427800044f7800ae029000a40020001f
:10084c00110009008482d800000278002407980067
:10085c00ae029000a4002000110009008482d80090
:10086c00010278000442780014479800ae02900010
:10087c00a4002000110009008482d8000002780036
:10088c0024079800ae029000a4002000110009007b
:10089c008482d80001027800044278002447980032
:1008ac00ae029000a4002000110009008482d80040
:1008bc000002780024079800ae029000a4002000eb
:1008cc00110009008482d8000102780004427800eb
:1008dc00344798003e4290000482fb000403b000b1
:1008ec000400780012ff0700e002200010ff070050
:1008fc002e4290000482fb000403b0000400780038
:10090c000bff07001e4290000482fb000403b000a2
:10091c000400780006ff07001e4278000482fb00ea
:10092c000403b0000400780001ff07000080fa0007
:10093c00000006001000fa0060079800710798008c
:10094c005eff07000002eb00040f78000002eb00d2
:10095c0014079800030037001e0290000402e80000
:10096c00140798009e029000f4522700848f5200c6
:10097c00f9ff3400d0002000edfe0700a00020009d
:10098c00ebfe0700030037000000000001003700f9
:10099c000000000025048000048020000482620016
:1009ac00e00f5200f8ff3200eefe07000002780064
:1009bc00444798004e4290000482fb0004007800eb
:1009cc00dbfe07004e4290000482fb006123b9005d
:1009dc0004fd2f00f5ff2f000602420087824a001b
:1009ec003600200007002000860f5200878f5a0027
:1009fc0029003e0004600100030037000b003700a3
:100a0c00130037001b003700441980000400a100bc
:100a1c000410a1000420a1000430a1004419880096
:100a2c0014002000040f78002000370044198000c7
:100a3c000400a0000410a1000420a1000430a100b7
:100a4c004419880014002000040f780017003700a8
:100a5c00441980000400a1000410a0000420a1008f
:100a6c000430a1004419880014002000040f780001
:100a7c000e003700441980000400a0000410a000f0
:100a8c000420a1000430a1004419880014002000a7
:100a9c00040f7800050037000002eb00040f78000b
:100aac00a0002000a2fe0700000000001e0278003b
:100abc00e00f5200b6ff320085a0a9002023a80049
:100acc000000000025048000040022000482620063
:100adc00e00f5200fbff320085a0a9000418800033
:100aec0034079800d000200091fe0700a0002000e1
:100afc008ffe07003e009000b7fe0700d0002000dc
:100b0c008bfe0700a000200089fe070044ce2000c9
:100b1c000500200044079800550798003e029000fd
:100b2c00050020005e03900004b3b90006037800b2
:100b3c00ce03900005b8b90080037800070343008a
:100b4c00ce039000040278000722b800050343008e
:100b5c0086027800440798005507980044079800cf
:100b6c00550798004e029000de029000462bdd00e7
:100b7c004a22de0004027300ca2ade0044079800f1
:100b8c00550798004e0290000400780021ff0700e2
:100b9c00d000200066fe0700a000200064fe0700c5
:040bac007cff370093
:020000040000fa
:040bb0000000000041
:020000040000fa
:020000040001f9
:0457f8000ff90000a5
:020000040000fa
:020000040001f9
:0457fc007f3f0000eb
:00000001FF
