:020000040000fa
:080000000002040000000000f2
:020000040000fa
:10000800680300006803000068030000680300003c
:10001800680300006803000068030000680300002c
:100028006803000068030000680300009a020000eb
:10003800680300006803000068030000cc020000a9
:1000480068030000680300006803000068030000fc
:1000580068030000680300006803000068030000ec
:1000680068030000680300006803000068030000dc
:1000780068030000680300006803000068030000cc
:1000880068030000680300006803000068030000bc
:1000980068030000680300006803000068030000ac
:1000a800680300006803000068030000680300009c
:1000b800680300006803000068030000680300008c
:1000c800680300006803000068030000680300007c
:1000d800680300006803000068030000680300006c
:1000e800680300006803000068030000680300005c
:1000f800680300006803000068030000680300004c
:10010800680300006803000068030000680300003b
:10011800680300006803000068030000680300002b
:10012800680300006803000068030000680300001b
:10013800680300006803000068030000680300000b
:1001480068030000680300006803000068030000fb
:1001580068030000680300006803000068030000eb
:1001680068030000680300006803000068030000db
:1001780068030000680300006803000068030000cb
:1001880068030000680300006803000068030000bb
:1001980068030000680300006803000068030000ab
:1001a800680300006803000068030000680300009b
:1001b800680300006803000068030000680300008b
:1001c800680300006803000068030000680300007b
:1001d800680300006803000068030000680300006b
:1001e800680300006803000068030000680300005b
:0801f800680300006803000029
:020000040000fa
:10020800680300006803000068030000680300003a
:10021800680300006803000068030000680300002a
:100228006803000068030000680300009a020000e9
:10023800680300006803000068030000cc020000a7
:1002480068030000680300006803000068030000fa
:1002580068030000680300006803000068030000ea
:1002680068030000680300006803000068030000da
:1002780068030000680300006803000068030000ca
:1002880068030000680300006803000068030000ba
:1002980068030000680300006803000068030000aa
:1002a800680300006803000068030000680300009a
:1002b800680300006803000068030000680300008a
:1002c800680300006803000068030000680300007a
:1002d800680300006803000068030000680300006a
:1002e800680300006803000068030000680300005a
:1002f800680300006803000068030000680300004a
:100308006803000068030000680300006803000039
:100318006803000068030000680300006803000029
:100328006803000068030000680300006803000019
:100338006803000068030000680300006803000009
:1003480068030000680300006803000068030000f9
:1003580068030000680300006803000068030000e9
:1003680068030000680300006803000068030000d9
:1003780068030000680300006803000068030000c9
:1003880068030000680300006803000068030000b9
:1003980068030000680300006803000068030000a9
:1003a8006803000068030000680300006803000099
:1003b8006803000068030000680300006803000089
:1003c8006803000068030000680300006803000079
:1003d8006803000068030000680300006803000069
:1003e8006803000068030000680300006803000059
:0803f800680300006803000027
:020000040000fa
:100400000f8020000e7f22000e01880000000000f7
:10041000000020000000e000020032000001200087
:10042000200288000c000700c036200001002000d8
:1004300011000700000020000000e0000200320070
:100440000000020000000000fe02020000000000a8
:100450000040da000000fe004440a9000000200037
:100460000000e0000300320000002000a00188002e
:100470004440a80000000600910188008000780038
:100480000000eb0015003700e280400032a0b4000d
:100490009101ba00e280400032a0b4009102ba009b
:1004a000e280400032a0b4000002eb00472bde00e7
:1004b000f507b200602ce10004003a000059eb009f
:1004c0008301e900fdff3e00040037006128e100e0
:1004d000010032000082eb00040007001101ba00a5
:1004e0000200e000e8ff3a00000006003159ba00bf
:1004f0008301e9000c0032002159ba008301e900b0
:10050000080032000400e00003003a00e2804000ee
:1005100032a0b400f5ff370011d9ba008301e90019
:10052000faff3a008100e800e180400032a0b40008
:1005300000000600849fbe00861f78003400f8008b
:1005400004002000a40188000000fa008460a900d3
:10055000641680004222de00614262000404a200b0
:10056000614262000482fb00610262004222dd00ff
:1005700066168000b5ff2f00850263000502720039
:10058000641688000080fa003400f9004f037800f8
:100590004f02be0000400600849fbe00861f780008
:1005a0003400f80004002000a40188000000fa00d4
:1005b00084e0a900641680004222de0061426200ed
:1005c0000404a200614262000482fb006102620036
:1005d0004222dd0066168000b5ff2f008502630011
:1005e00005027200641688000080fa003400f900e9
:1005f0004f0378004f02be00004006000000fa00e2
:10060000243a80000480a1000490a10004a0a1006d
:10061000243a8800f4ff290064198800c842a90020
:10062000c862a9000002eb00541688000002eb002b
:1006300024088800240880000440a0000450a00082
:100640002408880014a12700140888000002eb0089
:1006500084088800840880000440a0000450a000a2
:1006600084088800b4892100640888008460a90097
:100670009460a8000002eb000408880084e0a90050
:100680000002eb003408880005e1a80011e1a80091
:10069000000000002504800004082000048262009d
:1006a000e00f5200fbff320011e1a90084e0a90035
:1006b0000002eb003408880014a1270064088800b9
:1006c00094e0a80011e1a80000000000feff370040
:0806d0000040da000000fe000a
:020000040000fa
:0406d800000000001e
:020000040000fa
:020000040001f9
:0457f8002ff9000085
:020000040000fa
:020000040001f9
:0457fc007f3f0000eb
:00000001FF
