:020000040000fa
:080000000002040000000000f2
:020000040000fa
:100008003c0700003c0700003c0700003c070000dc
:100018003c0700003c0700003c0700003c070000cc
:100028003c0700003c0700003c0700003c070000bc
:100038003c0700003c0700003c0700003c070000ac
:100048003c0700003c0700003c0700009a02000043
:100058003c070000d60200003c0700003c070000f7
:100068003c0700003c0700003c0700003c0700007c
:100078003c0700003c0700003c0700003c0700006c
:100088003c0700003c0700003c0700003c0700005c
:100098003c0700003c0700003c0700003c0700004c
:1000a8003c0700003c0700003c0700003c0700003c
:1000b8003c0700003c0700003c0700003c0700002c
:1000c8003c0700003c0700003c0700003c0700001c
:1000d8003c0700003c0700003c0700003c0700000c
:1000e8003c0700003c0700003c0700003c070000fc
:1000f8003c0700003c0700003c0700003c070000ec
:100108003c0700003c0700003c0700003c070000db
:100118003c0700003c0700003c0700003c070000cb
:100128003c0700003c0700003c0700003c070000bb
:100138003c0700003c0700003c0700003c070000ab
:100148003c0700003c0700003c0700003c0700009b
:100158003c0700003c0700003c0700003c0700008b
:100168003c0700003c0700003c0700003c0700007b
:100178003c0700003c0700003c0700003c0700006b
:100188003c0700003c0700003c0700003c0700005b
:100198003c0700003c0700003c0700003c0700004b
:1001a8003c0700003c0700003c0700003c0700003b
:1001b8003c0700003c0700003c0700003c0700002b
:1001c8003c0700003c0700003c0700003c0700001b
:1001d8003c0700003c0700003c0700003c0700000b
:1001e8003c0700003c0700003c0700003c070000fb
:0801f8003c0700003c07000079
:020000040000fa
:100208003c0700003c0700003c0700003c070000da
:100218003c0700003c0700003c0700003c070000ca
:100228003c0700003c0700003c0700003c070000ba
:100238003c0700003c0700003c0700003c070000aa
:100248003c0700003c0700003c0700009a02000041
:100258003c070000d60200003c0700003c070000f5
:100268003c0700003c0700003c0700003c0700007a
:100278003c0700003c0700003c0700003c0700006a
:100288003c0700003c0700003c0700003c0700005a
:100298003c0700003c0700003c0700003c0700004a
:1002a8003c0700003c0700003c0700003c0700003a
:1002b8003c0700003c0700003c0700003c0700002a
:1002c8003c0700003c0700003c0700003c0700001a
:1002d8003c0700003c0700003c0700003c0700000a
:1002e8003c0700003c0700003c0700003c070000fa
:1002f8003c0700003c0700003c0700003c070000ea
:100308003c0700003c0700003c0700003c070000d9
:100318003c0700003c0700003c0700003c070000c9
:100328003c0700003c0700003c0700003c070000b9
:100338003c0700003c0700003c0700003c070000a9
:100348003c0700003c0700003c0700003c07000099
:100358003c0700003c0700003c0700003c07000089
:100368003c0700003c0700003c0700003c07000079
:100378003c0700003c0700003c0700003c07000069
:100388003c0700003c0700003c0700003c07000059
:100398003c0700003c0700003c0700003c07000049
:1003a8003c0700003c0700003c0700003c07000039
:1003b8003c0700003c0700003c0700003c07000029
:1003c8003c0700003c0700003c0700003c07000019
:1003d8003c0700003c0700003c0700003c07000009
:1003e8003c0700003c0700003c0700003c070000f9
:0803f8003c0700003c07000077
:020000040000fa
:10040000cf9420000e7f22000e0188000000000023
:10041000000020000000e000020032000001200087
:10042000200288000c00070080c02000010020008e
:1004300011000700000020000000e0000200320070
:100440000000020000000000f405020000000000af
:100450000040da000000fe004440a900c000200077
:100460000000e0000300320000002000a00188002e
:100470004440a80000000600910188008000780038
:100480000000eb0015003700e280400032a0b4000d
:100490009101ba00e280400032a0b4009102ba009b
:1004a000e280400032a0b4000002eb00472bde00e7
:1004b000f507b200602ce10004003a000059eb009f
:1004c0008301e900fdff3e00040037006128e100e0
:1004d000010032000082eb00040007001101ba00a5
:1004e0000200e000e8ff3a00000006003159ba00bf
:1004f0008301e9000c0032002159ba008301e900b0
:10050000080032000400e00003003a00e2804000ee
:1005100032a0b400f5ff370011d9ba008301e90019
:10052000faff3a008100e800e180400032a0b40008
:1005300000000600849fbe00869fbe003400f800c5
:1005400004002000a40188000000fa008560a900d2
:1005500064842000144278008483fb0035118000fd
:10056000054378006580200085824300864a780034
:100570000442e8000443780065842000864a78003d
:100580006484200014427800f443b20004437800ed
:1005900065842000864a78000080fa003400f90063
:1005a0004f03be004f02be0000400600849fbe0005
:1005b000861f78003400f80004002000a4018800a1
:1005c0000000fa0085a0a90024408000e00f52003e
:1005d00019003a000540800004042000848f520076
:1005e00002003a000002eb00044088000440800052
:1005f00005188000040342008484200004024300a4
:10060000050a7800044080000402e80004408800e5
:1006100021e3a900441980000400a0000410a100f7
:100620000420a1000430a1004419880021e3a8009f
:10063000140020002440880024408000e10f520074
:1006400019003a001540800004042000848f5200f5
:1006500002003a000002eb001440880014408000c1
:100660000518800004034200848c2000040243002b
:10067000050a7800144080000402e8001440880055
:1006800021e3a900441980000400a1000410a10086
:100690000420a1000430a1004419880021e3a8002f
:1006a0000002eb00244088000080fa003400f900ca
:1006b0004f0378004f02be00004006000400fa001d
:1006c0002047980084382100040f780000000000c3
:1006d0001e02780004f0a7000402ea000402ea0007
:1006e0004f22de00044278001e0fe900e04f520066
:1006f000f7ff3a008580a9002e4290000482fb009b
:10070000241188000080fa00000006000200fa00b0
:10071000000f7800050037001e02780014427800b0
:100720001e0fe80004407800e4ff07001e02780076
:1007300014427800e04f5200f7ff3a000080fa00c0
:10074000000006000800fa00200798003107980012
:100750002e029000be029000a200200003002000a4
:100760000400be00930307000002be00044f78009f
:100770002e029000be029000a20020000300200084
:100780000400be007b0307000002be00240798009f
:10079000350798002e029000be029000a2002000b3
:1007a000030020000400be00820307000002be0018
:1007b000144798002e029000be029000a200200074
:1007c000030020000400be006a0307000002be0010
:1007d00024079800350798002e029000be02900072
:1007e000a2002000030020000400be0071030700e7
:1007f0000002be00244798002e029000be02900026
:10080000a2002000030020000400be0059030700de
:100810000002be0024079800350798002e029000c1
:10082000be029000a2002000030020000400be00d1
:10083000600307000002be00344798003e4290006b
:100840000443b000044078009cff07002e42900053
:100850000443b0000440780098ff07001e42900057
:100860000443b0000440780094ff0700e0c2b300e6
:1008700092ff070005c3b3001ec242000440780087
:100880008eff070090c0b3008cff07000080fa00c5
:10089000000006000a00fa0030079800410798009f
:1008a0003e029000ce029000a20020000300200033
:1008b0000400be003f0307000002be00044f7800a2
:1008c0003e029000ce029000a20020000300200013
:1008d0000400be00270307000002be003407980092
:1008e000450798003e029000ce029000a200200032
:1008f000030020000400be002e0307000002be001b
:10090000144798003e029000ce029000a200200002
:10091000030020000400be00160307000002be0012
:1009200034079800450798003e029000ce029000e0
:10093000a2002000030020000400be001d030700e9
:100940000002be00244798003e029000ce029000b4
:10095000a2002000030020000400be0005030700e1
:100960000002be0034079800450798003e02900040
:10097000ce029000a2002000030020000400be0070
:100980000c0307000002be00344798003e029000ae
:10099000ce029000a2002000030020000400be0050
:1009a000f40207000002be003407980045079800d3
:1009b0003e029000ce029000a20020000300200022
:1009c0000400be00fb0207000002be00444798007e
:1009d0004e4290000443b0000440780037ff070007
:1009e000e0c2b30035ff07003e4290000443b00070
:1009f0000440780031ff07002e4290000443b0000d
:100a0000044078002dff07001e4290000443b00010
:100a10000440780029ff070005c3b3001ec242004e
:100a20000440780025ff07000080fa00000006005f
:100a30000000fa00243a80000480a1000490a10084
:100a400004a0a100243a8800f4ff2900641988005a
:100a50000002eb00041988000002eb001419880062
:100a60000002eb0024198800c002a800c022a800e0
:100a70002c03a9002c23a9000002eb008419880094
:100a80003003a8003023a8000002eb0044198800be
:100a900014c0b3000443780045322000864a780031
:100aa00025198000f40f2e008482620004102000bb
:100ab0000502720024198800141980000420a00087
:100ac0000430a0000440a0000450a10014198800c4
:100ad000041980000450a1000460a0000470a1006b
:100ae000041988002043a80021e3a80054058000d1
:100af0000440a1000450a0000460a0005405880038
:100b000085a0a90095a0a800441980000400a000b9
:100b10000410a1000420a1000430a10044198800a1
:100b20000002eb0094088800f4012000740888009b
:100b300013e1a8000002eb00540888008500a9001a
:100b40000002eb00041188007406200044118800a4
:100b50002062a900041180000480a1000490a1007b
:100b60000411880021e2a8002342a800153a800061
:100b7000f40b20000483620064042000750520004b
:100b800027742000844b7800854b7800864b7800d2
:100b900015368000f40f2e0084826200043020009d
:100ba00005027200143688002535800004fe2f00ef
:100bb000048262006400b30024358800153a800086
:100bc0000404200005037200640420007505200061
:100bd00027742000844b7800854b7800864b780082
:100be0000080fa00000006001200fa00881f78005a
:100bf00070079800010f98008dff0700d0c0b30068
:100c0000aefe0700a0c0b300acfe0700c4bf2800c2
:100c100004007800bdfe0700d0c0b300a7fe0700a7
:100c2000a0c0b300a5fe07002023a8000002eb002f
:100c3000441988006022b8002407980035079800fe
:100c40002e029000be029000048fbe000002eb0056
:100c5000640798000b0037006e0290008402420087
:100c600084842000048242001402780005002000e1
:100c70001e0f42005e974a006e0290000402e800d8
:100c800064079800ee029000f4032000848f520065
:100c9000f1ff34000002eb00640798000f003700fa
:100ca0006e02900084024200848c20000482420084
:100cb00014027800050020002e039000be0390006f
:100cc0000602420087824a002407980035079800f0
:100cd0006e0290000402e80064079800ee029000a3
:100ce000f4032000848f5200edff34001e00be008c
:100cf000370107000002be0044079800550798001e
:100d000002002000032824004e009000de00900026
:100d1000b90007000002be0044079800550798007c
:100d200018c0b30002002000832c24004e00900065
:100d3000de0090000301070000027800e00f52007f
:100d400001003c000044eb00e04f54000d00320075
:100d500002882400f3e723004e009000de0090009c
:100d6000d00107000002be00f2fd2c001326240073
:100d70000400be00430007000002be0044079800c4
:100d80005507980018c0b30002002000832c2400ef
:100d90004e009000de009000e8000700000278009e
:100da000e00f5200010034000044eb00e04f54001b
:100db000100032004e009000de009000620107003b
:100dc0000002be00c2202800832024000400be00d0
:100dd000b40107000002be00a2452a0083292400b6
:100de0000400be00260007000002be004407980071
:100df0005507980002002000031224004e009000c6
:100e0000de009000a70107000002be004407980022
:100e1000550798004e009000de009000ef0007009c
:100e20000002be000400be00c80007000002be00b1
:100e3000048fbe001e02be000400be0041fe07007b
:100e40002e029000be0290006200200003002000ed
:100e50000400be00aa0007000002be000400be009d
:100e60008cfe0700d0c0b30014fe0700a0c0b30082
:100e700012fe07006fff37000040da000000fe009e
:100e800003f0a200889fbe008a9fbe008c1f7800de
:100e9000150107001c0133006450e1004f003200cf
:100ea0006420e1005200320003826c0007003b0026
:100eb0000905d0000306d000820f54000c065d0027
:100ec0000200390002003200890178000306780030
:100ed0008582550004003d000003fd008103fd00f4
:100ee0008502ea008b854200840f720002003b00fd
:100ef00060001000e08018006011b8000005eb00f1
:100f00007a28e1000a00390006007800c75ddd009c
:100f1000f707b200878075002d00370082817100cd
:100f20000a017800610560008180d1000080d30053
:100f30008502e900f9ff3b00060440008784480071
:100f400002003b0060041400e0841c000988a30038
:100f5000070032008a8171008281710061016400a2
:100f60008904d1000884d3008b05e80017003700fe
:100f70000978a30013003a000b00e00013003400ce
:100f80008b05e9000804440089844c000a4474007d
:100f90000978a3000d003a000b00e00007003400c0
:100fa0008b05e9000804440089844c0001003a00e4
:100fb0000b0020000978a300f7ff32000001eb00ce
:100fc00002003700828171000a0178008b0007005f
:100fd0000cf0a70001f0a000d40037006420e1006d
:100fe00002003a00838f6c00d40033000801be0079
:100ff0000200be00cd003700889fbe008a9fbe0061
:101000008c1f7800b8000700bf00330003866c0017
:101010006450e1002e0032006420e1003300320011
:101020006150e1002f0032006120e1003100320008
:1010300085855500eb07b00009002000080420005a
:10104000050037000804440089844c000a00310080
:101050000603430087834b000001530081815b003e
:10106000f8ff33000203be000800a000080444009b
:1010700089844c00f6ff3900c639dd008301730016
:1010800001003200130020008904d1000884d3003d
:101090000998a300050032000800a7000300a00083
:1010a0008904d1000884d3008b05e8008904d100ad
:1010b0000884d3000001eb000281d2004f0007003a
:1010c00001f0a1000cf0a70001f0a000970037008c
:1010d0006420e100990032000801be000200be0059
:1010e000f7ff37006120e100940032006000b80093
:1010f000f3ff37000000200001f82700f0ff370061
:10110000839f68000100e00002003d0060001000c5
:10111000e08018000300e00002003d0060011100c3
:10112000e0811900130107004f00e00002003b00be
:1011300060001000e080180000000600140020008d
:1011400053013700f4ff2f00510137000001be00aa
:10115000500007000470a70003f0a1006509b1006a
:10116000160032000d0035006828e1000600350049
:10117000f0ff2f00f1ff27000300e00013003b0009
:1011800001002800000005000000400081804800a8
:101190008502e900fcff3a0008003700f88f4200a2
:1011a00002003c008000eb00000005008100d1003f
:1011b0000080d3008502e800fcff3a000300e00055
:1011c00002003b0060001000e080180000000600f4
:1011d0004f89de0082017800480137000001eb00f2
:1011e00004010700040032000200200003f823007d
:1011f00001f0a70022ff0700000006008100200088
:10120000618055000b003d000b00200061fe2f00a7
:101210000100e1001d003400828171006101640061
:101220008904d1000884d3000000e800faff3a00e6
:101230007100200061006400030070000200600083
:101240000900320061044400e0844c000988a500d4
:10125000050032008b05e8006808e10002003a0052
:101260008904d1000884d300f20f20000258e10065
:1012700005003d00c75ddd00f907b20089807500fb
:1012800008007800000006000bf827008b007800ab
:1012900000000500c70ade00f107b200f50fb2003a
:1012a00008003200e1cf4200020032000170a000cd
:1012b00024000500810f70000100320004080500c1
:1012c00044000500810f700002003a001400050080
:1012d0008502e9000000400081c04800fcff3b009f
:1012e0000170a000240005000004be00e9ff070013
:1012f0000003be000405be000200be00e5ff0700bb
:10130000844f7500000006000200be006450e1003a
:10131000050036006420e100020036000968a300e1
:1013200001003a000800be000160a0004f067800ee
:101330004f05be004f04be0000000600f0ff2f0066
:10134000f1ff2700f9ff3700889fbe008a9fbe008b
:101350008c9fbe009a000700850478000005be003f
:101360006420e10049003e006220e10003003200f9
:10137000090035000bf8a300440032000bf8a3006d
:101380000800320010022000504a8800f0ff2f00b1
:10139000f1ff27003d00370001f82f00000020007a
:1013a0003a0037003d000700b5fe07000006be000a
:1013b0000a00be00324f200053f3230061ff0700f4
:1013c000060034000c00be0034000700acfe07002d
:1013d0000006be000a00be00020037008904e900d2
:1013e0000c00be002d0007002e0007002b00070098
:1013f000a4fe07000001be000c00be00fefe0700b8
:101400000005be000001be00260007000006be0069
:10141000a2f32300430d2c009afe0700809fbe001c
:101420000c00be00d2e32700d3f02b001d00070004
:101430004f01be00f0fe07000006be000a01be001c
:10144000180007000a01be008efe07000006be005d
:101450006148b9005eff07000005be0032082800a1
:10146000e3952b000f0007000c01be0085fe07006e
:101470000006be000a00be000200280013f323008d
:10148000080007000c01be007efe07004f06be00ec
:101490004f05be004f04be000000060003f023000d
:1014a00002000500889fbe008a9fbe008c1f780046
:1014b0008dff070094ff330003866c006450e10049
:1014c000240032006420e100270032006150e10076
:1014d000220032006120e100210032008b854200b1
:1014e000eb07b1000134b800003ab800080442002c
:1014f00089844a00013ab8000030b8008880400072
:1015000009014a00040033000000400081804800c7
:10151000020149008b05e900c909dd008301700063
:101520000100320013002000c814de004814dd0062
:101530004709de001200b200c808de00088470000f
:101540002eff070001f0a1000cf0a70001f0a000a1
:1015500076ff37006120e10078ff32000801be000d
:101560000200be00f7ff37006150e100fcff3a00c7
:1015700072ff37006022b800060220000000d00091
:101580008180d2000482d2008582d2000000a000b7
:101590000202520083825a0003003100020242001c
:1015a00083824a000000a1000603e900f3ff3a002d
:1015b00000000600efff07000400be000000060068
:1015c0000003be0033ff07006220e100020032008a
:1015d0000600be0005000500e507b100f107b200f6
:1015e00004f023008480700007f0a70001f0a00041
:1015f00024000500889fbe008a9fbe000003be0035
:1016000024ff070085057800828152000200200037
:101610006220e10004003a00f307b1000400350045
:101620007718e100040035000600be001400370002
:101630006000b8000f003700f50f2000faff2f0000
:101640008502d1000a85d3008301e900fcff3b003d
:101650008184620000046500890f7400f2ff32008b
:101660008582ea000a85ea00818462000004650040
:10167000e2fe070007f0a70001f0a0000081eb00e8
:101680000200e0004f05be004f04be00000006004f
:10169000889fbe008a9fbe00841f780012ff07004b
:1016a0004f00780011003300f0ff2f00838f6c0093
:1016b00006003b00040565000a00a700080037008b
:1016c00009f0a6001000200008003700820f540027
:1016d000838f5c00030039001000200001003e00f1
:1016e0000000200009f0a7000000ea004f05be003e
:1016f0004f04be000000e00000000600881f7800d4
:10170000030478000300e00007003d0060001000c3
:10171000e080180060011900e081190002003b0020
:1017200001f02d00030037000400070008f0a700b7
:1017300001f0a0004f04780000000600889fbe0062
:101740008a9fbe0000827000040271000482710052
:10175000260032000004be000200be006011b80086
:101760006b092000950220000182cf000a00390099
:101770000541b1000082cf00070039000541b100ea
:101780000982cf00040039000541b1000882cf0072
:10179000010039000541b10005425200120032003b
:1017a0000a003b0082817100610164008100d10068
:1017b0000080d3008984d3000884d3008b05e8001f
:1017c0000442e800f7ff3a0007003700080444002d
:1017d00089844c0000004800818048008b05e900a6
:1017e0000442e900f9ff3a0084fe07004f05be00fd
:0817f0004f04be0000000600da
:020000040000fa
:1017f800546500006d70000065720000617400009f
:0818080075720000650000008c
:020000040000fa
:10181000000800004a010000000000004a09000022
:0c182000020000000000000000000000ba
:020000040000fa
:020000040001f9
:0457f8000ff90000a5
:020000040000fa
:020000040001f9
:0457fc007f3f0000eb
:00000001FF
