:020000040000fa
:080000000002040000000000f2
:020000040000fa
:100008009a0200009a0200009a0200009a02000078
:100018009a0200009a0200009a0200009a02000068
:100028009a0200009a0200009a0200009a02000058
:100038009a0200009a0200009a0200009a02000048
:020000040000fa
:020000040000fa
:100400008f8220000e7f22000e0188000000000075
:10041000000020000000e000020032000001200087
:10042000200288000c000700403620000100200058
:1004300011000700000020000000e0000200320070
:10044000000002000000000026030200000000007f
:100450000040da000000fe004440a9000000200037
:100460000000e0000300320000002000a00188002e
:100470004440a80000000600910188008000780038
:100480000000eb0015003700e280400032a0b4000d
:100490009101ba00e280400032a0b4009102ba009b
:1004a000e280400032a0b4000002eb00472bde00e7
:1004b000f507b200602ce10004003a000059eb009f
:1004c0008301e900fdff3e00040037006128e100e0
:1004d000010032000082eb00040007001101ba00a5
:1004e0000200e000e8ff3a00000006003159ba00bf
:1004f0008301e9000c0032002159ba008301e900b0
:10050000080032000400e00003003a00e2804000ee
:1005100032a0b400f5ff370011d9ba008301e90019
:10052000faff3a008100e800e180400032a0b40008
:0c053000000006000040da000000fe00a1
:020000040000fa
:10053c000000fa00243a80000480a1000490a1007d
:10054c0004a0a100243a8800f4ff29006419880053
:10055c00f4012000041688000002eb004416880009
:10056c006840a8006860a8006800a8006ba0a800fc
:10057c006bc0a8000080fa00000006000200fa0020
:10058c00000f78000002eb002408880004e8230028
:10059c00140888008460a9000b0037000002eb00ef
:1005ac000408880005e1a800000000002404800075
:1005bc0068026200e00f5200fcff32008460a90068
:1005cc0011e1a9001e0fe9001e027800e00f520095
:1005dc00f2ff3c000080fa00000006000200fa0066
:1005ec00000f78001e027800140278005416880060
:1005fc00cb42a80010002000e0ff0700cb42a9006e
:10060c001e82e8001402780054168800cb62a80001
:10061c0010002000d9ff0700cb62a900f43f2f0087
:10062c00541688000080fa00000006000000fa0052
:10063c00f4cf2f00040078000080fa0000000600c0
:10064c000800fa00baff0700f43f2f005416880088
:10065c00f43f2f0024079800f43f2f003407980034
:10066c00f2ff070000027800140798009e02900029
:10067c00f43f2f00848f5200040032002e029000b1
:10068c00340798001e029000240798000002eb002b
:10069c00040f78000400370064024700040078005f
:1006ac00ceff07001e0fe800340620009e027800e3
:0c06bc00848f5200f8ff3600e9ff370081
:020000040000fa
:1006c8000008000028000000020000007ff29700e8
:1006d800f037f00043f09f00f127f10007f1030025
:1006e800f07ff00007f06700f08bf100c3f10f0016
:1006f800f083f1000bf0ff0073ffb300ffd3ff009e
:08070800e30000000000000006
:020000040000fa
:020000040001f9
:0457f8000ff90000a5
:020000040000fa
:020000040001f9
:0457fc007f3f0000eb
:00000001FF
