:020000040000FA
:0600000041EF04F01200C4
:0600080004EF04F01200F9
:060018000CEF04F01200E1
:06002A000100A008000027
:080030007E0000000200000048
:080038000001776B1E0E716ED2
:100040000401400E096F200E0A6F040E0B6F880E1C
:10005000086F0401200E0E6F040E0F6F400E0C6F20
:100060001200550EA76EAA0EA76EA68212000401FA
:10007000140E226F010E236F12000001756B040134
:1000800021510001755D20E275C000F0016A026A2D
:10009000040122510024F36E23510120F46E2451F7
:1000A0000220F86EF4CFF7FFF3CFF6FF0800F5CF8C
:1000B00076F000017551EA6A250FE96E040EEA2216
:1000C00076C0EFFF752BDBD7F86A1200F00E040143
:1000D0002217840EA66E0001756B040121510001E8
:1000E000755D26E27551EA6A250FE96E040EEA2273
:1000F000EFCF03F075C000F0016A026A04012251DB
:100100000024F36E23510120F46E24510220F86E76
:10011000F4CFF7FFF3CFF6FF03C0F5FF0C000F0E8F
:10012000000175150F0801E19CDF0001752BD5D783
:100130001200940EA66E0001756B0401215100019E
:10014000755D1EE27551006E016A060ED89000368C
:100150000136E804FBE1026A01BE02680401225193
:100160000024F36E23510120F46E24510220F86E16
:10017000F4CFF7FFF3CFF6FF74DF0001752BDDD767
:10018000F86A1200A66A0001756B04012151000192
:10019000755D10E20401225100017525A96EA6804B
:1001A0007551EA6A250FE96E040EEA22A8CFEFFF27
:1001B000752BEBD712000001756B04012151000172
:1001C000755D15E20401225100017525A96E755176
:1001D000EA6A250FE96E040EEA22EF50A86E040EBB
:1001E000A66E3FDFA6B2FED70001752BE6D7120040
:1001F000C40EA66E0001756B040121510001755DEE
:1002000021E27551EA6A250FE96E040EEA22EFCF6A
:1002100003F075C000F0016A026A04012251002453
:10022000F36E23510120F46E24510220F86EF4CFB6
:10023000F7FFF3CFF6FF03C0F5FF0C0012DF00015C
:10024000752BDAD7F86A120097D8060E00017A5D8E
:1002500003E36D50020B01E08ED00001770511E140
:1002600004010CBF0DD00401400E096F400E0401C3
:1002700008170401087D880E040108130001776B3C
:100280007AD0040108BF77D00001756B04012051BA
:10029000320A45E0CD0A34E0F80A2DE0020A26E0F1
:1002A000010A1FE0070A18E0010A11E0030A0AE048
:1002B000070A08E0060A01E04DD0D9DE0001040E6D
:1002C000756F49D0DADE050E0001752744D0FEDED9
:1002D0000001010E756F3FD02CDF0001010E756F1C
:1002E0003AD050DF050E0001752735D064DF0001DC
:1002F000010E756F30D07CDF0001010E756F2BD0C1
:100300006D960001786B796B00017807000E795BC0
:1003100000017851791101E0F7D7FF001CD0030EDE
:100320000401215D09E104012251E8B08C84E8A0B8
:100330008C940001010E756F040E0401215D09E12A
:1003400004012251E8B08C86E8A08C960001010ED1
:10035000756F01D000D00001010E776F000175515B
:100360000AE075C00DF4400E04010C1704010C7D69
:10037000880E04010C13120000017E517F1104E16C
:10038000200E7E6F4E0E7F6F7E07000E7F5B6DA28C
:1003900008D07E517F1130E18C708C50010B13E13D
:1003A00028D000017A5102E18C9023D07A0502E135
:1003B0008C8009D0020E7A5D02E18C801AD0030E87
:1003C0007A5D03E18C908C821200050E7A5D06E165
:1003D00000017E517F1110E18C700BD0060E7A5D0A
:1003E0000BE100017E517F1107E18C708C50010BF5
:0A03F00002E08C9212008C821200D1
:0603FA006C500BE1040150
:1004000000513C0BE842E8420D0802E10FEF02F018
:1004100018EF02F0040E6C5C01E119D81200000123
:10042000606B616B666B676BEDEC02F09AEF02F04C
:10043000020E0001605D09E15CD8040100BD02D03C
:10044000C80E01D0880E006F1200DFEF02F0040E1C
:1004500000017A5D09E112C46EFF6E50000802E2ED
:10046000050E01D0030E7A6F0001600509E10AD87C
:10047000040104BD02D0C80E01D0880E046F120022
:10048000DFEF02F00001080E665D000E675903E21F
:1004900066C069F002D0080E696F69C005F4695141
:1004A000006E016A0050665F0150675B180E646F52
:1004B000040E656F69511CE000017BA307D062C088
:1004C000F6FF63C0F7FF0800F55005D062C0E9FFF2
:1004D00063C0EAFFEF5064C0E9FF65C0EAFFEF6E5A
:1004E0000001622B000E6323642B65236907E2D7AA
:1004F000120001C46AF000016A516625666F000EA1
:100500006721676F180E626F040E636F6A5111E006
:1005100062C0E9FF63C0EAFFEF5064C0E9FF65C055
:10052000EAFFEF6E642B000E6523622B63236A07DC
:10053000EDD712006D98000161510BE10401080E26
:10054000016F100E026F040E036F840E006F040122
:1005500023D0040110AF22D0000166510401165DC2
:10056000000167510401175904E216C466F017C46C
:1005700067F088DF0001010E606F0401080E016F53
:10058000100E026F040E036F800E006F0401180E30
:10059000066F040E076FC80E046F12000001020EF2
:1005A000606F0401056BC80E046F0401080E016F33
:1005B000180E026F040E036FC80E006F12000001C8
:1005C000606B0401080E016F100E026F040E036FC2
:0A05D0008C0E006F0401046B120092
:0605DA0004011051600B4A
:1005E000E842E842E842E842E842000901E012003D
:1005F0001151080A39E0010A35E00F0A0AE0030A3E
:1006000001E012000001010E616F0001040E7A6F1B
:1006100012000001010E616F0401130507E10001E2
:10062000FC0E626F070E636F120E13D0020E135D85
:1006300007E100010E0E626F080E636F200E09D0F5
:10064000030E135D0AE100012E0E626F080E636F48
:10065000040E0001666F676B02D00001616B000140
:100660007B83120042EF03F00001010E616F000175
:100670007C0E626F000E636F00017B930001010E20
:10068000666F12000001010E616F12C47CF004015C
:10069000125104E10001050E7A6F12000001060EEE
:0606A0007A6F1CEF00F070
:0A06A600080E6D6E6DBAFED7686A8B
:1006B000110E696E0001020E7A6F12006850040B71
:1006C00009E06950040B06E06D92699468A402D0B9
:1006D0006894FCD76850010B04E06950010B01E0FD
:1006E00025D86850100B0AE06950100B07E06984A8
:1006F00068986D82A19AA08A0300A19A6850200B85
:1007000006E06950200B03E070B07090689A030E09
:1007100000017A5D01E209D06850080B06E06950DB
:10072000080B03E0FDEC01F068961200686A7B0E8E
:10073000696E6E6A160E706E68A608D06896000024
:1007400000000000000000000000F6D76D98DFEC0C
:0E07500002F000017C6B0001030E7A6F1200B4
:02075E002A0E61
:10076000F66E000EF76E000EF86E00010900F550EF
:10077000706F0900F550716F03E1706701D03DD0D3
:100780000900F5506B6F0900F5506C6F0900F550CA
:100790006D6F09000900F550E96E0900F550EA6E29
:1007A000090009000900F5506E6F0900F5506F6FE0
:1007B00009000900F6CF72F0F7CF73F0F8CF74F0AC
:1007C0006BC0F6FF6CC0F7FF6DC0F8FF00016E5301
:1007D00002E16F5307E00900F550EE6E6E07F8E294
:1007E0006F07F9D772C0F6FF73C0F7FF74C0F8FF48
:0C07F00000017007000E715BBFD7120003
:0407FC0012010002E4
:1008000000000008D8040B000100000000010902EC
:1008100020000101008032090400000200000000F5
:1008200007050102400000070581024000000403A3
:020830000904B9
:0E083200C1CF80F00F0EC11281A804D080C08B
:10084000C1FF00EF04F0F00E8C16F00E9516140E9A
:100850006F6E53EC03F05EEC03F024EC01F0FBD779
:02086000120084
:0E086200000EF36E00EE00F0080E01D812003A
:10087000EA6002D0EE6AFCD7F350E9601200EE6A3B
:02088000FCD7A3
:0E08820013EE00F023EE00F0F86A059CAFECD8
:0E08900003F04FEC04F019EC04F0FBD712005B
:02089E00120046
:0208A000000056
:020000040030CA
:0100000024DB
:010001000EF0
:010002003FBE
:010003001EDE
:010005008179
:010006008178
:010008000FE8
:01000900C036
:01000A000FE6
:01000B00A054
:01000C000FE4
:01000D0040B2
:00000001FF
