:020000040000FA
:060000002FEF0BF01200CF
:060800002FEF0BF01200C7
:06082A000100841600002D
:080830007A0000000500000041
:080838006C500CE1689604010C
:1008400000513C0BE842E8420D0802E10ED801D00D
:1008500046D808D0040E6C5C03E1689650D802D0EC
:10086000000E02D0010E00D01200D9CFE6FFE1CF7A
:10087000D9FFE652040104BF046B0001726B6A6B7E
:100880006B6B706B716BEFEC05F0DF6ADF50026E23
:10089000036A010E025C000E03581BE200016B515B
:1008A00001E017D0F76ADF34FE0BF736F66E680EFC
:1008B000F626150EF7220900F5CF02F00800F5CF55
:1008C00003F004D003C0FAFF0250F96EFBDFDF2A09
:1008D000DDD7EED8E552E552E7CFD9FF1200020E80
:1008E00000016A5D0AE1A7D8040100BD03D0C80E6B
:1008F000006F02D0880E006F01D020D91200040EC4
:1009000000017F5D0AE112C46EFF6E50000803E231
:10091000050E7F6F02D0030E7F6F00016A0512E1A2
:1009200013D8020E0001725D04E10401840E046F0D
:1009300008D0040104BD03D0C80E046F02D0880E95
:10094000046F01D0FBD81200D9CFE6FFE1CFD9FF69
:10095000020EE1260001080E705D000E71590EE2D4
:1009600070C0DEFF71C0DDFF725103E1010E726FD6
:1009700004D0720502E1020E726F03D0080EDE6E23
:10098000DD6A040104930491010EDB500413DFCFF0
:1009900005F4000EDB500001705F010EDB50715B4F
:1009A000180E6E6F040E6F6F000180A31ED0D9CF9A
:1009B000E9FFDACFEAFFEE50ED1016E06CC0F6FF6B
:1009C0006DC0F7FF0800F5506EC0E9FF6FC0EAFF89
:1009D000EF6E00016E2B000E6F236C2B6D23DF0674
:1009E000010E01E2DB06E3D71CD0D9CFE9FFDACF55
:1009F000EAFFEE50ED1015E06CC0E9FF6DC0EAFFB4
:100A0000EF506EC0E9FF6FC0EAFFEF6E00016E2B82
:100A1000000E6F236C2B6D23DF06010E01E2DB0657
:100A2000E4D7020EE15C02E2E16AE552E16EE552D2
:100A3000E7CFD9FF1200D9CFE6FFE1CFD9FF020EF1
:100A4000E126030E04010015E76E010EE7CFDBFF80
:100A500001C4DFFFDE5000017027DD507123180E46
:100A60006C6F040E6D6FD9CFE9FFDACFEAFFEE505D
:100A7000ED1014E06CC0E9FF6DC0EAFFEF506EC0EE
:100A8000E9FF6FC0EAFFEF6E6E2B000E6F236C2B39
:100A90006D23DF06010E01E2DB06E5D7020EE15C05
:100AA00002E2E16AE552E16EE552E7CFD9FF1200BA
:100AB0006D9800016B510CE10401080E016F100EDE
:100AC000026F040E036F840E006F0401046F35D0B3
:100AD000040110AF22D0000170510401165D000125
:100AE00071510401175904E216C470F017C471F073
:100AF0002BDF0001010E6A6F0401080E016F100E5A
:100B0000026F040E036F800E006F0401180E066F53
:100B1000040E076FC80E046F10D00001020E6A6F3A
:100B20000401056BC80E046F0401080E016F180E56
:100B3000026F040E036FC80E006F1200D9CFE6FFDC
:100B4000E1CFD9FFE652020E00016A5D36E16D5039
:100B5000100B33E004010151026E036A080E021803
:100B600001E103502AE100513C0BE842E8420D0844
:100B700024E10051800B21E1100E026F040E036F7F
:100B8000DF6ADF50026E036A080E025C000E035833
:100B900013E2DF50EA6A180FE96E040EEA22EF5002
:100BA000E66EDF50EA6A100FE96E040EEA22E552A3
:100BB000E750EF6EDF2AE5D70DD000016A6B040124
:100BC000080E016F100E026F040E036F8C0E006F83
:0E0BD0000401046BE552E552E7CFD9FF120095
:020BDE00040110
:100BE0001051600BE842E842E842E842E84200095E
:100BF00001E055D01151070A51E00B0A4FE0070AF6
:100C000040E0010A2CE00B0A28E0020A26E0030A71
:100C100022E0080A12E0010A0EE00F0A0AE0030AC5
:100C200001E03CD00001010E6B6F0001040E7F6FEC
:100C300036D036D834D090D832D00001010E6B6F48
:100C40000001810E6C6F000E6D6F0001809300013A
:100C5000010E706F24D0A8D822D0F6D820D0000181
:100C6000010E6B6F0401145100016C6F6D6B820EED
:100C70006C27000E6D23000180930001010E706F40
:100C80000ED00001010E6B6F04011451EA6A820F4D
:100C9000E96E000EEA2212C4EFFF01D000D012006C
:100CA000800E0401105D57E11351030A34E0010A7C
:100CB00010E0030A01E04DD00001010E6B6F00014E
:100CC000920E6C6F140E6D6F120E0001706F716BCF
:100CD00040D00001010E6B6F04011251F66EF76AED
:100CE000D890F636F7365E0EF626150EF722090076
:100CF000F5CF6CF00A00F5CF6DF0020E0001F76A37
:100D00006C25F66E6D51F7220900F5CF70F00A00E0
:100D1000F5CF71F01ED00001010E6B6F040112516E
:100D2000F66EF76AD890F636F736620EF626150E8E
:100D3000F7220900F5CF6CF00A00F5CF6DF06CC01A
:100D4000F6FF6DC0F7FF0800F5500001706F716B82
:100D500000D00001808312000001010E6B6F0F0EA6
:100D6000E66E710EE66E0F0EE66E54EC09F0E5527B
:100D7000E552E552010EE66E820EE66E000EE66E5C
:100D800054EC09F0E552E552E55212C481F0040139
:100D9000125104E10001050E7F6F05D00001060E1F
:100DA0007F6FF7EC07F012000401186B196B040158
:100DB00010511F0B020A16E0030A10E0010A01E0BD
:100DC00035D00001010E6B6F80A402D004011881A0
:100DD000000180A102D00401188328D00001010E77
:100DE0006B6F24D00001010E6B6F040114510F0BC7
:100DF000080DF350036A000F026E040E0322145113
:100E0000800B01E0010E040DF350000102246E6F0F
:100E1000000E03206F6F6EC0E9FF6FC0EAFFEF5056
:100E2000040B03E00401010E186F00D000016B05F4
:100E30000AE10001180E6C6F040E6D6F00018093C3
:100E40000001020E706F12000401120510E1105132
:100E50001F0B00090CE10001010E6B6F030E040172
:100E6000115D03E10001808102D000018091040145
:100E700012513AE110511F0B020836E114510F0BC9
:100E8000000932E00001010E6B6F040114510F0BD9
:100E9000080DF350036A000F026E040E0322145172
:100EA000800B01E0010E040DF350000102246E6F6F
:100EB000000E03206F6F030E0401115D07E1840E25
:100EC0006EC0E9FF6FC0EAFFEF6E0ED014AF06D020
:100ED0006EC0E9FF6FC0EAFFEF6A06D0880E6EC0F1
:0A0EE000E9FF6FC0EAFFEF6E120099
:060EEA00040110511F0B72
:100EF000010801E079D0145101E076D0060E115DB1
:100F00002EE11351230A28E0010A13E0030A01E04D
:100F100024D00001020E6B6F0001810505E1000184
:100F2000B60E6C6F140E6D6F090E0001706F716B51
:100F300014D00001020E6B6F0001810505E1000174
:100F40002C0E6C6F150E6D6F0001810504E1320EE1
:100F50000001706F716B01D000D00001808304012B
:100F60001051600BE842E842E842E842E8420108DA
:100F700001E03AD011510B0A31E0080A21E0090AD8
:100F800019E0080A09E00B0A05E0080A01E02CD084
:100F90002CD82AD02BD828D00001020E6B6F00016C
:100FA000860E6C6F000E6D6F000180930001010EC4
:100FB000706F1AD00001020E6B6F13C486F014D04C
:100FC0000001020E6B6F0001870E6C6F000E6D6FDB
:100FD000000180930001010E706F06D00001020E27
:100FE0006B6F12C487F000D01200120012000001D3
:100FF000886B1E0E716E0401030E096F200E0A6FBE
:10100000040E0B6F880E086F0401230E0E6F040E82
:101010000F6F400E0C6F1200D9CFE6FFE1CFD9FF62
:10102000E652FC0EDB50030805E2030EF36EFC0EE5
:10103000F3CFDBFFDF6AFC0EDB50DF5C19E2DF5031
:10104000E76EFD0EDBCFE9FFFE0EDBCFEAFFE750D8
:10105000E926000EEA22EF50E66EDF50EA6A230F1F
:10106000E96E040EEA22E552E750EF6EDF2AE3D77D
:10107000FC0EDBCF0DF4400E04010C170C7D880E26
:101080000C13E552E552E7CFD9FF1200D9CFE6FFA6
:10109000E1CFD9FF0001886B040108BF31D0FC0EFD
:1010A000DBCF02F00951D880025403E2FC0E09C4E0
:1010B000DBFF0001886BFC0EDB50885D19E2885174
:1010C000EA6A200FE96E040EEA22EF50E66E8851BC
:1010D000E76EFD0EDBCFE9FFFE0EDBCFEAFFE75048
:1010E000E926000EEA22E552E750EF6E882BE3D79F
:1010F0000401030E096F400E0817087D880E0813BF
:0E1100000001885100D0E552E7CFD9FF120060
:02110E0080A2BD
:1011100003D06DA60FD802D06DB613D800017F059D
:1011200008E16DBA06D0686A696A69806988020E4A
:101130007F6F12006D6A696A6D860001010E7F6F14
:1011400012006D6A696A00017F6B1200A1EF08F05E
:1011500000017F5101E145D06850040B04E0695063
:10116000040B01E04CD86DB23CD06850010B04E098
:101170006950010B01E070D86850100B04E0695011
:10118000100B01E02FD86850400B04E06950400B71
:1011900001E04ED86850200B04E06950200B01E0BC
:1011A00049D86850020B04E06950020B01E052D8A4
:1011B000030E00017F5D01E214D00001836B040E79
:1011C000835D0FE26850080B0BE06950080B08E0E4
:1011D0001CEC04F0000901E168960001832BEFD7B5
:1011E00000D01200698468986D82A19AF290A08A5A
:1011F000F2860300F2B00AD8A09AF29612006D921D
:10120000699468A402D06894FCD71200000180A100
:101210000ED06D926D840001080E846F070E856FED
:101220008407000E855B84518511FAE16D941200EC
:10123000689C120070A00CD0800E0401005D07E1D4
:10124000840E0401045D03E104018C0E006F7090B4
:10125000689A12006A6A12006A6A686A9F0E6B6E68
:101260007B0E696E6E6A0F0EE66E710EE66E0F0EE5
:10127000E66E1AD8E552E552E552160E706E68A673
:1012800008D0689600000000000000000000000088
:10129000F6D76D989EEC05F0000180910001816BFE
:1012A0000001030E7F6F1200D9CFE6FFE1CFD9FF17
:1012B000FD0EDBCFE9FFFE0EDBCFEAFFFC0EDB50BD
:1012C00004E0EE6AFC0EDB06F9D7E552E7CFD9FF62
:0212D00012000A
:0E12D200F00E8C1695169388938A8150100B9F
:1012E00001E0010E0001736F8150200B01E0010E3F
:1012F000746F776B786B796B010E756F12005BD82A
:10130000060E00017F5D03E36D50020B01E00BD080
:101310009AD8000907E00001755102E0000E01D0E3
:10132000010E756F01D81200000175052EE176518E
:101330000E082AE27BC077F0070E00017A15F76AE3
:101340007A0FF66E160EF7220800F5CF78F0020E2F
:101350007A25070BF76A7A0FF66E160EF722080049
:10136000F5CF79F07A2B010E7CAF02D0D89003D064
:101370007B5D000E7C5904E2010E7B6F7C6B02D01A
:101380007B6B7C6B0001766B05D0796B79C078F054
:1013900079C077F004010CBF0DD0030EE66E770E16
:1013A000E66E000EE66E0CEC08F0E552E552E552F2
:1013B0000001762B120000017D517E1104E1100E18
:1013C0007D6F270E7E6F7D07000E7E5B6DA20BD0BA
:1013D0007D517E1107E18C708C50010B02E08C82F4
:1013E00001D08C922FD000017F5103E18C908C9220
:1013F00029D07F0503E18C808C8224D0020E7F5D92
:1014000003E18C808C921ED0030E7F5D03E18C90F3
:101410008C8218D0050E7F5D07E100017D517E11A1
:1014200002E18C708C920ED0060E7F5D0BE1000104
:101430007D517E1107E18C708C50010B02E08C9283
:1014400001D08C8212008150100B01E0010E0001CE
:10145000735D09E08150100B01E0010E736F81B8DC
:1014600002D0010E02D0000E00D012008150200BDD
:1014700001E0010E0001745D09E08150200B01E0E4
:10148000010E746F81BA02D0010E02D0000E00D09E
:02149000120048
:0E1492001201000200000008D8040000020051
:1014A0000102000109022200010100E032090400EA
:1014B000000103010200092111010001223200078D
:1014C00005810303000A0403090434034D00690085
:1014D000630072006F006300680069007000200004
:1014E00054006500630068006E006F006C006F00C0
:1014F00067007900200049006E0063002E002E0373
:101500004A00610063006F006200200043006F002A
:101510006C0065002000200020002000200000005A
:1015200000000000000000000000000005010902AA
:10153000A1010901A10005091901290315002501CF
:101540009503750181029501750581010501093039
:1015500009311581257F750895028106C0C0A41444
:0A156000A414C614CA14FE14EA0E07
:06156A002A0EF66E080EC9
:10157000F76E000EF86E00010900F550656F090066
:10158000F550666F03E1656701D03DD00900F55065
:10159000606F0900F550616F0900F550626F090036
:1015A0000900F550E96E0900F550EA6E09000900DE
:1015B0000900F550636F0900F550646F09000900D8
:1015C000F6CF67F0F7CF68F0F8CF69F060C0F6FFAC
:1015D00061C0F7FF62C0F8FF0001635302E164538A
:1015E00007E00900F550EE6E6307F8E26407F9D7EB
:1015F00067C0F6FF68C0F7FF69C0F8FF0001650724
:08160000000E665BBFD712006B
:0816080005D812D87FEC09F0AF
:10161000FCD712000F0EC11292829284140E6F6ECC
:1016200000017F6B0001806B0001816B69EF09F0A5
:0E16300087EC08F06FBE02D0A8EC08F01200A4
:02163E00000E9C
:10164000F36E00EE00F0080E01D81200EA6002D03E
:0E165000EE6AFCD7F350E9601200EE6AFCD798
:02165E0013EE89
:1016600000F023EE00F0F86A019CB5EC0AF041ECC2
:0A1670000BF004EC0BF0FBD71200A6
:06167A00FCFCFC0004046E
:02168000040064
:02168200120054
:05168400000000000061
:020000040030CA
:0100000024DB
:010001000EF0
:010002003FBE
:010003001EDE
:010005008179
:010006008178
:010008000FE8
:01000900C036
:01000A000FE6
:01000B00A054
:01000C000FE4
:01000D0040B2
:00000001FF
