:020000040000FA
:0600000065EF04F01200A0
:0608000065EF04F0120098
:020808001200DC
:020818001200CC
:02082A000000CC
:04082C002A0EF66E2C
:10083000080EF76E000EF86E00010900F550656FA6
:100840000900F550666F03E1656701D03DD00900EE
:10085000F550606F0900F550616F0900F550626F47
:1008600009000900F550E96E0900F550EA6E09002B
:1008700009000900F550636F0900F550646F090025
:100880000900F6CF67F0F7CF68F0F8CF69F060C0E5
:10089000F6FF61C0F7FF62C0F8FF0001635302E199
:1008A000645307E00900F550EE6E6307F8E2640751
:1008B000F9D767C0F6FF68C0F7FF69C0F8FF00010D
:0A08C0006507000E665BBFD712004B
:0608CA0013EE00F023EE26
:1008D00000F0F86A019C16EC04F088EC04F073EC6C
:0608E00004F0FBD712003A
:0A08E6000F0EC1129388938AF00EE2
:1008F0008C16951681B802D08C8201D08C92FAD7D2
:020900001200E3
:0E09020000EE00F00F0EEE6AEA62FDD7120062
:020910001200D3
:00000001FF
