:020000040000fa
:080000000002040000000000f2
:020000040000fa
:100008002203000022030000220300002203000054
:100018002203000022030000220300002203000044
:100028009a020000220300002203000022030000bd
:100038002203000022030000220300002203000024
:100048002203000022030000220300002203000014
:100058002203000022030000220300002203000004
:1000680022030000220300002203000022030000f4
:10007800b402000022030000220300002203000053
:1000880022030000220300002203000022030000d4
:1000980022030000220300002203000022030000c4
:1000a80022030000220300002203000022030000b4
:1000b80022030000220300002203000022030000a4
:1000c8002203000022030000220300002203000094
:1000d8002203000022030000220300002203000084
:1000e8002203000022030000220300002203000074
:1000f8002203000022030000220300002203000064
:100108002203000022030000220300002203000053
:100118002203000022030000220300002203000043
:100128002203000022030000220300002203000033
:100138002203000022030000220300002203000023
:100148002203000022030000220300002203000013
:100158002203000022030000220300002203000003
:1001680022030000220300002203000022030000f3
:1001780022030000220300002203000022030000e3
:1001880022030000220300002203000022030000d3
:1001980022030000220300002203000022030000c3
:1001a80022030000220300002203000022030000b3
:1001b80022030000220300002203000022030000a3
:1001c8002203000022030000220300002203000093
:1001d8002203000022030000220300002203000083
:1001e8002203000022030000220300002203000073
:0801f8002203000022030000b5
:020000040000fa
:100208002203000022030000220300002203000052
:100218002203000022030000220300002203000042
:100228009a020000220300002203000022030000bb
:100238002203000022030000220300002203000022
:100248002203000022030000220300002203000012
:100258002203000022030000220300002203000002
:1002680022030000220300002203000022030000f2
:10027800b402000022030000220300002203000051
:1002880022030000220300002203000022030000d2
:1002980022030000220300002203000022030000c2
:1002a80022030000220300002203000022030000b2
:1002b80022030000220300002203000022030000a2
:1002c8002203000022030000220300002203000092
:1002d8002203000022030000220300002203000082
:1002e8002203000022030000220300002203000072
:1002f8002203000022030000220300002203000062
:100308002203000022030000220300002203000051
:100318002203000022030000220300002203000041
:100328002203000022030000220300002203000031
:100338002203000022030000220300002203000021
:100348002203000022030000220300002203000011
:100358002203000022030000220300002203000001
:1003680022030000220300002203000022030000f1
:1003780022030000220300002203000022030000e1
:1003880022030000220300002203000022030000d1
:1003980022030000220300002203000022030000c1
:1003a80022030000220300002203000022030000b1
:1003b80022030000220300002203000022030000a1
:1003c8002203000022030000220300002203000091
:1003d8002203000022030000220300002203000081
:1003e8002203000022030000220300002203000071
:0803f8002203000022030000b3
:020000040000fa
:100400002f8020000e7f22000e01880000000000d7
:10041000000020000000e000020032000001200087
:10042000200288000c00070060322000010020003c
:1004300011000700000020000000e0000200320070
:100440000000020000000000ce02020000000000d8
:100450000040da000000fe004440a9000000200037
:100460000000e0000300320000002000a00188002e
:100470004440a80000000600910188008000780038
:100480000000eb0015003700e280400032a0b4000d
:100490009101ba00e280400032a0b4009102ba009b
:1004a000e280400032a0b4000002eb00472bde00e7
:1004b000f507b200602ce10004003a000059eb009f
:1004c0008301e900fdff3e00040037006128e100e0
:1004d000010032000082eb00040007001101ba00a5
:1004e0000200e000e8ff3a00000006003159ba00bf
:1004f0008301e9000c0032002159ba008301e900b0
:10050000080032000400e00003003a00e2804000ee
:1005100032a0b400f5ff370011d9ba008301e90019
:10052000faff3a008100e800e180400032a0b40008
:1005300000000600841f78003400f800040020004a
:10054000a40188000000fa008400a9000440800093
:100550000402e800044088000080fa003400f9003a
:100560004f02780000400600841f78003400f80035
:1005700004002000a40188000000fa008680a90081
:10058000044080000402e800044088000080fa0073
:100590003400f9004f027800004006000000fa0025
:1005a000243a80000480a1000490a10004a0a100ce
:1005b000243a8800f4ff290064198800c842a90081
:1005c000c8e2a800c902a8000002eb005416880087
:1005d0008400a900240580000440a1000450a1006b
:1005e0000460a000240588008200a9008680a9007c
:1005f00005348000f40f2e00848262000480200005
:100600000502720004348800740580000400a00014
:100610000410a0000420a100740588008220a90015
:100620009400a8009680a800010037000000000098
:1006300004408000e90f5200fcff3600cc42a800c5
:0c064000fbff37000040da000000fe0065
:020000040000fa
:10064c000008000002000000000000000000000094
:020000040000fa
:020000040001f9
:0457f8002ff9000085
:020000040000fa
:020000040001f9
:0457fc007f3f0000eb
:00000001FF
