:020000040000FA
:06000000CEEF05F0120036
:020006000000F8
:08000800D9CFE6FFE1CFD9FFDB
:10001000C750040B01E0010E046E1F0EC51404103E
:1000200001E0F6D7C580C5B0FED7FE0EDBCFE6FFF8
:1000300053EC05F0E552C750040B01E0010E046ECD
:100040001F0EC514041001E0F6D7FD0EDBCFE6FF4E
:1000500053EC05F0E552C750040B01E0010E046EAD
:100060001F0EC514041001E0F6D7FC0EDBCFE6FF2F
:1000700053EC05F0E552C750040B01E0010E046E8D
:100080001F0EC514041001E0F6D7C584C5B4FED711
:10009000FE0EDBCFE6FFD6EC04F0E552000901E0EE
:1000A000F7D7000E00D0E552E7CFD9FF1200D9CF25
:1000B000E6FFE1CFD9FFC750040B01E0010E046E4B
:1000C0001F0EC514041001E0F6D7C580C5B0FED7D9
:1000D000FE0EDBCFE6FF53EC05F0E552C750040BF4
:1000E00001E0010E046E1F0EC514041001E0F6D7E6
:1000F000FD0EDBCFE6FF53EC05F0E552C750040BD5
:1001000001E0010E046E1F0EC514041001E0F6D7C5
:10011000C582C5B2FED7FE0EDB500109E66E53EC78
:1001200005F0E552C750040B01E0010E046E1F0EEE
:10013000C514041001E0F6D7FA0EDBCFE6FFFB0E84
:10014000DBCFE6FFFC0EDBCFE6FF18EC05F0E55257
:10015000E552E552C58AC588C5B8FED7C584C5B481
:10016000FED7000E00D0E552E7CFD9FF1200D9CF5D
:10017000E6FFE1CFD9FFC750040B01E0010E046E8A
:100180001F0EC514041001E0F6D7C580C5B0FED718
:10019000FE0EDBCFE6FF53EC05F0E552C750040B33
:1001A00001E0010E046E1F0EC514041001E0F6D725
:1001B000FD0EDBCFE6FF53EC05F0E552C750040B14
:1001C00001E0010E046E1F0EC514041001E0F6D705
:1001D000FB0EDBCFE6FFFC0EDBCFE6FF17DAE552C6
:1001E000E552C750040B01E0010E046E1F0EC5144A
:1001F000041001E0F6D7C584C5B4FED7000E00D0C8
:10020000E552E7CFD9FF1200D9CFE6FFE1CFD9FF02
:10021000C750040B01E0010E046E1F0EC51404103C
:1002200001E0F6D7C580C5B0FED7FE0EDBCFE6FFF6
:1002300053EC05F0E552C750040B01E0010E046ECB
:100240001F0EC514041001E0F6D7FD0EDBCFE6FF4C
:1002500053EC05F0E552C750040B01E0010E046EAB
:100260001F0EC514041001E0F6D7C582C5B2FED733
:10027000FE0EDB500109E66E53EC05F0E552C75067
:10028000040B01E0010E046E1F0EC514041001E002
:10029000F6D7FA0EDBCFE6FFFB0EDBCFE6FFFC0E58
:1002A000DBCFE6FF18EC05F0E552E552E552C58AD2
:1002B000C588C5B8FED7C584C5B4FED7000E00D02A
:1002C000E552E7CFD9FF1200D9CFE6FFE1CFD9FF42
:1002D000C750040B01E0010E046E1F0EC51404107C
:1002E00001E0F6D7C580C5B0FED7FE0EDBCFE6FF36
:1002F00053EC05F0E552C750040B01E0010E046E0B
:100300001F0EC514041001E0F6D7FD0EDBCFE6FF8B
:1003100053EC05F0E552C750040B01E0010E046EEA
:100320001F0EC514041001E0F6D7FC0EDBCFE6FF6C
:1003300053EC05F0E552C750040B01E0010E046ECA
:100340001F0EC514041001E0F6D7FB0EDBCFE6FF4D
:1003500053EC05F0E552C750040B01E0010E046EAA
:100360001F0EC514041001E0F6D7C584C5B4FED72E
:10037000FE0EDBCFE6FFD6EC04F0E552000901E00B
:10038000F7D7000E00D0E552E7CFD9FF1200D9CF42
:10039000E6FFE1CFD9FFC750040B01E0010E046E68
:1003A0001F0EC514041001E0F6D7C580C5B0FED7F6
:1003B000FE0EDBCFE6FF53EC05F0E552C750040B11
:1003C00001E0010E046E1F0EC514041001E0F6D703
:1003D000FD0EDBCFE6FF53EC05F0E552C750040BF2
:1003E00001E0010E046E1F0EC514041001E0F6D7E3
:1003F000C5B2FED7FC0EDBCFE6FF53EC05F0E552AD
:10040000C750040B01E0010E046E1F0EC51404104A
:1004100001E0F6D7C582C5B2FED7FE0EDB5001095A
:10042000E66E53EC05F0E552C750040B01E0010EF7
:10043000046E1F0EC514041001E0F6D7F90EDBCFD1
:10044000E6FFFA0EDBCFE6FFFB0EDBCFE6FF18EC94
:1004500005F0E552E552E552C58AC588C5B8FED714
:10046000C584C5B4FED7000E00D0E552E7CFD9FF52
:100470001200D9CFE6FFE1CFD9FFC750040B01E04E
:10048000010E046E1F0EC514041001E0F6D7C580DE
:10049000C5B0FED7FE0EDBCFE6FF53EC05F0E5520C
:1004A000C750040B01E0010E046E1F0EC5140410AA
:1004B00001E0F6D7FD0EDBCFE6FF53EC05F0E55289
:1004C000C750040B01E0010E046E1F0EC51404108A
:1004D00001E0F6D7FC0EDBCFE6FF53EC05F0E5526A
:1004E000C750040B01E0010E046E1F0EC51404106A
:1004F00001E0F6D7FA0EDBCFE6FFFB0EDBCFE6FF1F
:1005000085D8E552E552C750040B01E0010E046E98
:100510001F0EC514041001E0F6D7C584C5B4FED77C
:10052000000E00D0E552E7CFD9FF1200D9CFE6FF89
:10053000E1CFD9FFC750040B01E0010E046E1F0E7E
:10054000C514041001E0F6D7C580C5B0FED7FE0E75
:10055000DBCFE6FF53EC05F0E552C750040B01E09A
:10056000010E046E1F0EC514041001E0F6D7FD0E37
:10057000DBCFE6FF53EC05F0E552C750040B01E07A
:10058000010E046E1F0EC514041001E0F6D7FC0E18
:10059000DBCFE6FF53EC05F0E552C750040B01E05A
:1005A000010E046E1F0EC514041001E0F6D7C582BB
:1005B000C5B2FED7FE0EDB500109E66E53EC05F026
:1005C000E552C750040B01E0010E046E1F0EC51466
:1005D000041001E0F6D7F90EDBCFE6FFFA0EDBCF11
:1005E000E6FFFB0EDBCFE6FF18EC05F0E552E55227
:1005F000E552C58AC588C5B8FED7C584C5B4FED73F
:10060000000E00D0E552E7CFD9FF1200D9CFE6FFA8
:10061000E1CFD9FFE652DF6A400EDF5C3BE2C6A6BF
:100620001ED0FD0EDBCFE9FFFE0EDBCFEAFFEF5061
:10063000E66E53EC05F0E552000902E0FD0E2CD009
:10064000C750040B01E0010E046E1F0EC514041008
:1006500001E0F6D7C5AC02D0FE0E1ED014D09E9697
:10066000FD0EDBCFE9FFFE0EDBCFEAFFEF50C96ED8
:10067000C6889EA6FED7C750040B05E1C750010BE4
:1006800002E1FE0E09D0FD0EDB2AFE0E01E3DB2A9D
:10069000DF2AC2D7000E00D0E552E552E7CFD9FFDE
:0206A000120046
:0E06A200D8CFE4FFE0CFE4FFE46EDACFE4FF50
:1006B000E2CFDAFFE9CFE4FFEACFE4FFF6CFE4FFD1
:1006C000F7CFE4FFF5CFE4FFF3CFE4FFF4CFE4FF8F
:1006D000FACFE4FF00EE00F0020EE80403E3EECFF1
:1006E000E4FFFBD700EE04F0010EE80403E3EECFD5
:1006F000E4FFFBD7E6529EAA0DD0AECF8AF00000F1
:1007000000008AC0E6FF010EE66E82D8E552E5528F
:100710008AC0ADFFE55200EE04F0010EE80403E3E9
:10072000E5CFEDFFFBD700EE01F0020EE80403E396
:10073000E5CFEDFFFBD7E5CFFAFFE5CFF4FFE5CF3F
:10074000F3FFE5CFF5FFE5CFF7FFE5CFF6FFE5CF08
:10075000EAFFE5CFE9FFE5CFDAFFE550E5CFE0FFBF
:10076000E5CFD8FF1000D9CFE6FFE1CFD9FFE652A1
:1007700000018B6B936A81686BD8E66A080EE66E9F
:100780008CEC05F0E552E552090EC86E420EE66E9D
:10079000010EE66EE66AA00EE66E64EC01F0E5522C
:1007A000E552E552E5520A0EE66EA7EC05F0E55279
:1007B000EDD7E552E552E7CFD9FF1200D9CFE6FFDA
:1007C000E1CFD9FFE652FE0EDB5002E08C8801D06B
:1007D0008C988C9C8C9A8C50DF6E000EDF90DF9290
:1007E000DF94DF96FD0EDB500F0BDF108C6E010ED9
:1007F000E66EF7EC05F0E5528C8C010EE66EF7EC38
:1008000005F0E5528C9CE552E552E7CFD9FF120086
:10081000D9CFE6FFE1CFD9FFFD0EDB380F0BE66E37
:10082000FE0EDBCFE6FFCADFE552E552020EE66EB2
:10083000DCEC05F0E552FD0EDBCFE6FFFE0EDBCF74
:10084000E6FFBCDFE552E552E552E7CFD9FF1200E3
:1008500094969498956A836A839C8398030EE66EB7
:10086000DCEC05F0E552838E060EE66EA7EC05F093
:10087000E552030EE66EE66AA1DFE552E552020E8E
:10088000E66EA7EC05F0E552030EE66EE66A96DF2B
:10089000E552E552040EE66EDCEC05F0E552030E7F
:1008A000E66EE66A8BDFE552E552020EE66EDCECA0
:1008B00005F0E552020EE66EE66A80DFE552E5528B
:1008C000020EE66EDCEC05F0E552280EE66EE66AF6
:1008D0009FDFE552E552020EE66EDCEC05F0E552D4
:1008E0000E0EE66EE66A94DFE552E552020EE66E03
:1008F000DCEC05F0E552060EE66EE66A89DFE552AD
:0E090000E552020EE66EDCEC05F0E552120048
:02090E00060ED3
:10091000F66E000EF76E000EF86E00010900F5503D
:10092000856F0900F550866F03E1856701D03DD0E2
:100930000900F550806F0900F550816F0900F550EE
:10094000826F09000900F550E96E0900F550EA6E62
:10095000090009000900F550836F0900F550846F04
:1009600009000900F6CF87F0F7CF88F0F8CF89F0BB
:1009700080C0F6FF81C0F7FF82C0F8FF00018353FB
:1009800002E1845307E00900F550EE6E8307F8E2B8
:100990008407F9D787C0F6FF88C0F7FF89C0F8FF42
:0C09A00000018507000E865BBFD7120027
:0409AC00D9CFE6FFBA
:1009B000DACFE6FFE1CFD9FFE2CFDAFF02EC06F0B3
:1009C000C580C5A003D0FDD7C5B0FED7A1B61FD046
:1009D00027D804E1C584C5B4FED70FD0C5AC0FD06D
:1009E000C582C5A203D0FDD7C5B2FED7A1B60FD030
:1009F00017D8F4E1C584C5B4FED7FD0E0BD0C5846D
:100A0000C5A403D0FDD7C5B4FED7A1A602D0FF0E62
:100A100001D0000EE552E5CFDAFFE7CFD9FF120093
:100A2000FD0EDBCFE6FF53EC05F0E552FF081200A8
:100A3000D9CFE6FFDACFE6FFE1CFD9FFE2CFDAFF89
:100A4000FB0EDBCFF3FFDB06F350000925E0EAECF9
:100A500005F0E66EFC0EDBCFE9FFDB2AFD0EDBCFF7
:100A6000EAFF01E3DB2AE552E750EF6EC5B6FED799
:100A7000A1A602D0FF0E11D00F0EC614080804E084
:100A80000F0EC6140B08DCE1FB0EDB50D9E0C59A53
:100A9000C588C5A8D5D7FDD7000EE552E5CFDAFF4A
:060AA000E7CFD9FF1200B0
:0A0AA600D9CFE6FFDACFE6FFE1CF7B
:100AB000D9FFE2CFDAFFFD0EDB50C96EC6AE02D021
:100AC000FF0E24D00F0EC61408080FE00F0EC61438
:100AD0000B080BE0C6889EA6FED7C750040B03E1A7
:100AE000C750010B10E0000E11D00F0EC6140808FD
:100AF00004E00F0EC6140B0809E1C7B0FED702ECE4
:100B000006F0C5AC02D0FE0E01D0000EE552E5CFD6
:080B1000DAFFE7CFD9FF120064
:080B1800D9CFE6FFDACFE6FFBA
:100B2000E1CFD9FFE2CFDAFF3F0EC716C66AC56A2A
:100B3000FD0EDB50C612FC0EDB50C7129486948863
:0E0B4000C68AE552E5CFDAFFE7CFD9FF1200F3
:020B4E00FF0E98
:100B5000E350036EEF0E01D0F30EE76EE72EAEEF1B
:100B600005F00C0E026EE76AE72EB4EF05F0022ED8
:0C0B7000B3EF05F0032EACEF05F012000F
:040B7C00000EF36E06
:100B800000EE00F0060E01D81200EA6002D0EE6A14
:0C0B9000FCD7F350E9601200EE6AFCD7BD
:040B9C0015EE00F062
:100BA00025EE00F0F86A019C87EC04F009EC06F0F1
:080BB000B3EC03F0FBD71200C7
:080BB800FF0EE350036E1B0E5B
:100BC00000D001D0200EE76EE72EFED7032EFAD715
:040BD00000D012003F
:0C0BD4000F0EC614080804E00F0EC61433
:0E0BE0000B0801E1C586C7A0FED7C950120060
:020BEE00FF0EF8
:100BF000E350E84E1200000000D000D000D0E82EF4
:040C0000FAD712000D
:0C0C04001F0EC514FDE1C750040BFAE1FF
:020C10001200D0
:020C12001200CE
:00000001FF
