:020000040000fa
:080000000002040000000000f2
:020000040000fa
:100008009a0200009a0200009a0200009a02000078
:100018009a0200009a0200009a0200009a02000068
:100028009a0200009a0200009a0200009a02000058
:100038009a0200009a0200009a0200009a02000048
:020000040000fa
:020000040000fa
:100400008f8120000e7f22000e0188000000000076
:10041000000020000000e000020032000001200087
:10042000200288000c000700405a20000100200034
:1004300011000700000020000000e0000200320070
:100440000000020000000000720402000000000032
:100450000040da000000fe004440a9000000200037
:100460000000e0000300320000002000a00188002e
:100470004440a80000000600910188008000780038
:100480000000eb0015003700e280400032a0b4000d
:100490009101ba00e280400032a0b4009102ba009b
:1004a000e280400032a0b4000002eb00472bde00e7
:1004b000f507b200602ce10004003a000059eb009f
:1004c0008301e900fdff3e00040037006128e100e0
:1004d000010032000082eb00040007001101ba00a5
:1004e0000200e000e8ff3a00000006003159ba00bf
:1004f0008301e9000c0032002159ba008301e900b0
:10050000080032000400e00003003a00e2804000ee
:1005100032a0b400f5ff370011d9ba008301e90019
:10052000faff3a008100e800e180400032a0b40008
:10053000000006000040da000000fe00889fbe00b8
:100540008a9fbe008c1f78000006eb00e00f500071
:10055000e08f5800e00f5900e08f590007003d0080
:100560006044b8006055b8001c0020000000540032
:1005700081805c0002015d0083815d00e00f52001c
:10058000e08f5a00e00f5b00e08f5b0007003d004a
:100590006044b8006055b8000c00a200040254008a
:1005a00085825c0006035d0087835d000c00070008
:1005b000e00f5600060032006022b8006033b80039
:1005c0000000520081805a0002015b0083815b00c1
:1005d0004f0678004f05be004f04be000000060025
:1005e000889fbe008a9fbe008c9fbe000404b80096
:1005f0000506b8008904460060854e000606b8006e
:100600000a054600e0854e000706b8008b05460047
:10061000040eb800890446000a854e00e0854d00ae
:10062000050eb8000a0546008b854e00060eb80080
:100630008b0546000416b8000a0546008b854e005f
:100640000516b8008b054600041eb8008b05460051
:100650000800be000a01be004f06be004f05be00e6
:080660004f04be00000006007b
:020000040000fa
:100668000000fa00243a80000480a1000490a10050
:1006780004a0a100243a8800f4ff29006419880026
:10068800f401200004168800340020004416880075
:100698006840a8006860a8006ba0a8006bc0a8000c
:1006a8000002eb0084088800840880000440a00051
:1006b8000450a000840888000080fa0000000600aa
:1006c8000200fa00a4408000040078000100200025
:1006d8000200200003002000d4662e00c5ee2d0085
:1006e800560020000700200092ff07000203be000a
:1006f8000002be000400be000601be00b4002000d7
:10070800050020006033b8000000420081804a00e4
:1007180002014b0083814b00f4ff2f0005002000ed
:1007280006002000070028000002620081826200a3
:100738000203630083836300e00f5200e08f5a00d6
:10074800e00f5b00e08f5b0016003d00f0ff2f001c
:10075800f1ff2f000001be0004024000858248001e
:10076800060349008783490000002000f1ff2f009d
:10077800f2ff2f00f3ff2f00040270008582700043
:10078800060371008783710010002000010020001b
:100798006011b80004024000858248000603490041
:1007a8008783490004027800a4408800a54080009f
:1007b80084322200110009008482d80001027800e6
:1007c800040f7800843e20001e0f42001e027800ad
:1007d800040078000080fa00000006000200fa0019
:1007e800000f78000002eb002408880004e82300ca
:1007f800140888008460a9000b0037000002eb0091
:100808000408880005e1a800000000002404800016
:1008180068026200e00f5200fcff32008460a90009
:1008280005e1a9001e0fe9001e027800e00f520042
:10083800f2ff3c000080fa00000006000000fa0009
:100848000002eb0034088800840880000440a000ff
:100858000450a0008408880011e1a80000000000ee
:100868001416800062026200e00f5200fcff3a009a
:1008780011e1a90034088000040078000080fa0023
:10088800000006000200fa00000f78001e0278003f
:10089800940278006416800004826200641688005e
:1008a800cd42a80010002000ccff0700cd42a900cf
:1008b8001e82e8001402780064168800cd62a80041
:1008c80010002000c5ff0700cd62a900f43f2f00eb
:1008d800641688000080fa00000006000e00fa0086
:1008e8005fff0700f43f2f0064168800f43f2f00d5
:1008f80054079800f43f2f00640798000002eb00ab
:10090800040f78000002eb001407980000000000b4
:100918001416800062026200e00f5200fcff3a00e9
:10092800f43f2f006416880065ff07000002780076
:1009380004007800a9ff0700cde2a900bfff070067
:1009480000027800240798005dff07000002780085
:1009580004007800a1ff0700cde2a800b7ff070058
:100968000002780034079800ae0290003e02900022
:100978000482520044079800ce02900014272000f9
:10098800110009008402d80000027800440798008a
:100998004e029000e90f52000700340044272f0050
:1009a80054079800443f2f00640798001400200063
:1009b800040f7800220037004e029000e90f420031
:1009c80007003d00443f2f0054079800443f2f0084
:1009d8006407980014002000040f780018003700fe
:1009e8004e029000e00f52000b003d00443f2f00e4
:1009f800540798004e0290008402420004802000b0
:100a08000482420014027800640798000002eb0098
:100a1800040f78000a003700f43f2f0054079800ad
:100a28004e029000840242000480200004824200aa
:100a380014027800640798000002eb00040f7800a5
:100a48001416800062026200e00f520034003a007f
:100a5800000000001416800062026200e00f5200dd
:100a6800fcff3200310037001e027800e00f520010
:100a780003003a006a0247000400780081ff07007b
:100a88001e027800e10f520028003a000002eb0035
:100a980014079800060037006a024700040078002f
:100aa80078ff07001e0290000402e800140798006f
:100ab8009e029000940f2000848f5200f6ff3600ab
:100ac8001416800062026200e00f520002003a0031
:100ad8000000000092ff3700f43f2e0064168800e3
:100ae8000002eb00140798000900370020032000db
:100af8003aff07001416800062026200e00f5200fd
:100b0800090032001e0290000402e8001407980051
:100b18001e029000e90f5200f4ff36000300370070
:100b280000000000010037000000000014168000db
:100b380062026200e00f5200cbff3a0078ff3700f4
:020000040000fa
:100b48000008000018000000020000000ff0ff007d
:100b5800f397f00037f07f00f227f10007f1670004
:100b6800f207f00067f00e0033aaaa0000000000a8
:020000040000fa
:020000040001f9
:0457f8000ff90000a5
:020000040000fa
:020000040001f9
:0457fc007f3f0000eb
:00000001FF
