:020000040000FA
:0600000036EF0DF01200C6
:0608000036EF0DF01200BE
:020808001200DC
:020818001200CC
:06082A000100A21A00000B
:080830000D01000002000000B0
:08083800F00E8C169516938852
:10084000938A8150100B01E0010E0001606F81500E
:10085000200B01E0010E616FC7EC0AF09280010EDF
:10086000C26EBC0EC06E37D80001646B970ED56E99
:10087000120022D9060E0101095D03E36D50020B3F
:1008800001E028D031D80001640524E1F2A422D08F
:10089000F294480ED76EE50ED66EDAEC0AF0000937
:1008A00019E00001A551E96EEA6AD890E936EA3606
:1008B000A70EE926000EEA22E7C0EEFFE8C0EDFF32
:1008C0001E0EA65D01E2A62B1D0EA55D02E1A56B25
:1008D00001D0A52B12000001A56BA66B1200C282ED
:1008E000C2B2FED700D01200D9CFE6FFE1CFD9FFC8
:1008F000E652400EE66E650EE66E000EE66EE7EC22
:100900000BF0E552E552E552000901E1D0D00001BB
:10091000626B00016551FF0A01E1B5D0C80A01E12F
:10092000A9D0010A6EE0030A64E0010A56E0070A52
:100930004DE0010A2FE0030A0DE0310A01E0A5D0E5
:100940000001140E676F0001010E686F0001040EB4
:10095000626F9CD00001010E626F0001665103E1DD
:100960008C948C9616D00001660503E18C948C86DD
:1009700010D0020E0001665D03E18C848C9609D0D4
:10098000030E0001665D03E18C848C8602D00001B9
:10099000626B7CD0030E0001665D0AE100016751C5
:1009A000E8B08C84E8A08C940001010E626F0DD039
:1009B000040E0001665D09E100016751E8B08C8614
:1009C000E8A08C960001010E626F60D00001646B9C
:1009D00082DF0001010E626F59D0DAEC0AF00009E3
:1009E00007E0E7C066F0E8C067F00001030E626F41
:1009F0004DD00001010E646F6EDF0001010E626FC9
:100A000045D00001A651E824020F0001626F0001E9
:100A1000A651E8240001666FA6C0DFFFDF50000882
:100A200027E20001A55104E100011D0EA56F02D0CF
:100A30000001A5070001A551E96EEA6AD890E936E0
:100A4000EA36A70EE926000EEA22EECF10F0EFCF2D
:100A500011F0EA6ADF34FE0BEA36E96E650EE9262C
:100A6000000EEA2210C0EEFF11C0EDFFDF06D6D760
:100A700032DF0CD034DFC3CF66F0C4CF67F00001A3
:100A8000030E626F03D0FF0001D000D0000162515D
:100A90000EE004010CBF0BD062C0E6FF650EE66EEF
:100AA000000EE66EADEC0BF0E552E552E552E55274
:100AB000E552E7CFD9FF120001010D510E1104E1FB
:100AC000100E0D6F270E0E6F0D07000E0E5B6DA240
:100AD0000BD00D510E1107E18C708C50010B02E010
:100AE0008C8201D08C9230D00101095104E18C90AC
:100AF0008C925ED829D0090503E18C808C8224D0A9
:100B0000020E095D03E18C808C921ED0030E095DFC
:100B100003E18C908C8218D0050E095D07E101017C
:100B20000D510E1102E18C708C920ED0060E095DF3
:100B30000BE101010D510E1107E18C708C50010B7E
:100B400002E08C9201D08C8212008150100B01E0E7
:100B5000010E0001605D09E08150100B01E0010E03
:100B6000606F81B802D0010E02D0000E00D01200DA
:100B70008150200B01E0010E0001615D09E0815010
:100B8000200B01E0010E616F81BA02D0010E02D08C
:100B9000000E00D01200D9CFE6FFE1CFD9FFACA202
:100BA000FED7FE0EDB50AD6EE552E7CFD9FF120047
:100BB000D9CFE6FFE1CFD9FFE652C7DF000901E157
:100BC000D3D08C80C2DF000901E1FCD78C908C82ED
:100BD000CFDF000901E1FCD78C928C84C9DF0009CA
:100BE00001E1FCD78C948C86C3DF000901E1FCD7BE
:100BF0008C96C66A948E949C710EAF6E020EB06E87
:100C0000240EAC6E900EAB6E080EB86EAE50DF6E5A
:100C1000AE50DF6EADDF000901E1FCD7520EE66E8B
:100C2000BADFE552530EE66EB6DFE5522D0EE66EE4
:100C3000B2DFE552320EE66EAEDFE552330EE66EFF
:100C4000AADFE552320EE66EA6DFE552200EE66E12
:100C5000A2DFE552540EE66E9EDFE552580EE66EB8
:100C60009ADFE552200EE66E96DFE552540EE66EF0
:100C700092DFE552650EE66E8EDFE552730EE66E8C
:100C80008ADFE552740EE66E86DFE552200EE66ED0
:100C900082DFE5524F0EE66E7EDFE5524B0EE66ECA
:100CA0007ADFE5522C0EE66E76DFE552200EE66E18
:100CB00072DFE552500EE66E6EDFE552720EE66EA2
:100CC0006ADFE552650EE66E66DFE552730EE66E8C
:100CD00062DFE552730EE66E5EDFE552200EE66ED1
:100CE0005ADFE552220EE66E56DFE552720EE66ED0
:100CF00052DFE552220EE66E4EDFE5522C0EE66E16
:100D00004ADFE5529EAAFED7720EAE5C2CE1200EA1
:100D1000E66E41DFE552520EE66E3DDFE552580EBB
:100D2000E66E39DFE552200EE66E35DFE552540EF1
:100D3000E66E31DFE552650EE66E2DDFE552730E8D
:100D4000E66E29DFE552740EE66E25DFE552200ED1
:100D5000E66E21DFE5524F0EE66E1DDFE5524B0ECB
:100D6000E66E19DFE55268DDE552E552E7CFD9FFBF
:020D700012006F
:0E0D72006C500CE16896040100513C0BE84205
:100D8000E8420D0802E10ED801D022D808D0040EA6
:100D90006C5C03E168962CD802D0000E02D0010EE4
:100DA00000D01200D9CFE6FFE1CFD9FFE65204010F
:100DB00004BF046B0101086B006B016B066B076BD2
:100DC00068EC08F0EED8E552E552E7CFD9FF120003
:100DD000020E0101005D0AE1A7D8040100BD03D0A5
:100DE000C80E006F02D0880E006F01D020D912000B
:100DF000040E0101095D0AE11AC46EFF6E5000087D
:100E000003E2050E096F02D0030E096F0101000510
:100E100012E113D8020E0101085D04E10401840E01
:100E2000046F08D0040104BD03D0C80E046F02D0C3
:100E3000880E046F01D0FBD81200D9CFE6FFE1CFB6
:100E4000D9FF020EE1260101080E065D000E0759CA
:100E50000EE206C1DEFF07C1DDFF085103E1010E0E
:100E6000086F04D0080502E1020E086F03D0080ED7
:100E7000DE6EDD6A040104930491010EDB5004135D
:100E8000DFCF05F4000EDB500101065F010EDB50E1
:100E9000075B200E046F040E056F01010AA31ED02C
:100EA000D9CFE9FFDACFEAFFEE50ED1016E002C12C
:100EB000F6FF03C1F7FF0800F55004C1E9FF05C1C3
:100EC000EAFFEF6E0101042B000E0523022B032322
:100ED000DF06010E01E2DB06E3D71CD0D9CFE9FF24
:100EE000DACFEAFFEE50ED1015E002C1E9FF03C1D1
:100EF000EAFFEF5004C1E9FF05C1EAFFEF6E01010F
:100F0000042B000E0523022B0323DF06010E01E252
:100F1000DB06E4D7020EE15C02E2E16AE552E16E33
:100F2000E552E7CFD9FF1200D9CFE6FFE1CFD9FFD5
:100F3000020EE126030E04010015E76E010EE7CF55
:100F4000DBFF01C4DFFFDE5001010627DD50072370
:100F5000200E026F040E036FD9CFE9FFDACFEAFF4C
:100F6000EE50ED1014E002C1E9FF03C1EAFFEF50BB
:100F700004C1E9FF05C1EAFFEF6E042B000E052353
:100F8000022B0323DF06010E01E2DB06E5D7020E8A
:100F9000E15C02E2E16AE552E16EE552E7CFD9FF9A
:100FA00012006D98010101510CE10401080E016F5E
:100FB000180E026F040E036F840E006F0401046F9D
:100FC00035D0040118AF22D00101065104011E5D85
:100FD0000101075104011F5904E21EC406F11FC498
:100FE00007F12BDF0101010E006F0401080E016FF4
:100FF000180E026F040E036F800E006F0401200EA6
:10100000066F040E076FC80E046F10D00101020EA8
:10101000006F0401056BC80E046F0401080E016F18
:10102000200E026F040E036FC80E006F1200D9CF9E
:10103000E6FFE1CFD9FFE652020E0101005D36E185
:101040006D50100B33E004010151106E116A080E4F
:10105000101801E111502AE100513C0BE842E8422E
:101060000D0824E10051800B21E1180E026F040EDF
:10107000036FDF6ADF50106E116A080E105C000EFD
:10108000115813E2DF50EA6A200FE96E040EEA22DB
:10109000EF50E66EDF50EA6A180FE96E040EEA229E
:1010A000E552E750EF6EDF2AE5D70DD00101006B66
:1010B0000401080E016F180E026F040E036F8C0EF0
:1010C000006F0401046BE552E552E7CFD9FF12002F
:1010D00004011851600BE842E842E842E842E84265
:1010E000000901E055D01951070A51E00B0A4FE001
:1010F000070A40E0010A2CE00B0A28E0020A26E079
:10110000030A22E0080A12E0010A0EE00F0A0AE0D0
:10111000030A01E03CD00101010E016F0101040E40
:10112000096F36D036D834D090D832D00101010EB4
:10113000016F01010B0E026F010E036F01010A9393
:101140000101010E066F24D0A8D822D0F6D820D0F5
:101150000101010E016F04011C510101026F036BBB
:101160000C0E0227010E032301010A930101010E57
:10117000066F0ED00101010E016F04011C51EA6AD5
:101180000C0FE96E010EEA221AC4EFFF01D000D065
:101190001200800E0401185D57E11B51030A34E070
:1011A000010A10E0030A01E04DD00101010E016FB8
:1011B00001014E0E026F180E036F120E0101066F31
:1011C000076B40D00101010E016F04011A51F66E48
:1011D000F76AD890F636F736FC0EF626180EF72288
:1011E0000900F5CF02F10A00F5CF03F1020E01016B
:1011F000F76A0225F66E0351F7220900F5CF06F1D2
:101200000A00F5CF07F11ED00101010E016F0401A4
:101210001A51F66EF76AD890F636F736000EF626B3
:10122000190EF7220900F5CF02F10A00F5CF03F1FC
:1012300002C1F6FF03C1F7FF0800F5500101066F78
:10124000076B00D001010A8312000101010E016F3A
:101250000F0EE66E710EE66E0F0EE66EB2EC0AF041
:10126000E552E552E552010EE66E0C0EE66E010EF9
:10127000E66EB2EC0AF0E552E552E5521AC40BF103
:1012800004011A5104E10101050E096F05D00101A5
:10129000060E096F98EC0BF012000401206B216B15
:1012A000040118511F0B020A16E0030A10E0010A9C
:1012B00001E035D00101010E016F80A402D00401CC
:1012C000208101010AA102D00401208328D001015C
:1012D000010E016F24D00101010E016F04011C51A8
:1012E0000F0B080DF350116A000F106E040E11223F
:1012F0001C51800B01E0010E040DF350010110247C
:10130000046F000E1120056F04C1E9FF05C1EAFF5B
:10131000EF50040B03E00401010E206F00D0010127
:1013200001050AE10101200E026F040E036F0101A5
:101330000A930101020E066F120004011A0510E162
:1013400018511F0B00090CE10101010E016F030E82
:101350000401195D03E101010A8102D001010A9132
:1013600004011A513AE118511F0B020836E11C51D1
:101370000F0B000932E00101010E016F04011C5145
:101380000F0B080DF350116A000F106E040E11229E
:101390001C51800B01E0010E040DF35001011024DB
:1013A000046F000E1120056F030E0401195D07E1A3
:1013B000840E04C1E9FF05C1EAFFEF6E0ED01CAF39
:1013C00006D004C1E9FF05C1EAFFEF6A06D0880E26
:0C13D00004C1E9FF05C1EAFFEF6E120046
:0413DC0080A203D018
:1013E0006DA60FD802D06DB613D80101090508E12A
:1013F0006DBA06D0686A696A69806988020E096FE9
:1014000012006D6A696A6D860101010E096F120092
:101410006D6A696A0101096B120008EF0AF00101A7
:10142000095101E145D06850040B04E06950040BF8
:1014300001E043D86DB23CD06850010B04E0695024
:10144000010B01E067D86850100B04E06950100BE5
:1014500001E02FD86850400B04E06950400B01E0D8
:1014600045D86850200B04E06950200B01E040D8BB
:101470006850020B04E06950020B01E049D8030EEA
:101480000101095D01E214D00001FD6B040EFD5D58
:101490000FE26850080B0BE06950080B08E0B9EC4C
:1014A00006F0000901E168960001FD2BEFD700D09E
:1014B0001200698468986D8212006D92699468A424
:1014C00002D06894FCD7120001010AA10ED06D92DF
:1014D0006D840001080EFE6F070EFF6FFE07000E01
:1014E000FF5BFE51FF11FAE16D941200689C12003F
:1014F00070A00CD0800E0401005D07E1840E040191
:10150000045D03E104018C0E006F7090689A120074
:101510006A6A12006A6A686A9F0E6B6E7B0E696E59
:101520006E6A0F0EE66E710EE66E0F0EE66E1AD83C
:10153000E552E552E552160E706E68A608D0689620
:10154000000000000000000000000000F6D76D98C9
:1015500017EC08F001010A9101010B6B0101030E68
:10156000096F1200D9CFE6FFE1CFD9FFFD0EDBCF27
:10157000E9FFFE0EDBCFEAFFFC0EDB5004E0EE6A73
:0E158000FC0EDB06F9D7E552E7CFD9FF1200CB
:02158E008A844D
:101590009394E66A030EE66E020EE66ED2EC0CF051
:1015A000E552E552E5520001870EE76F0C0EE86F39
:1015B000EDEF0AF08A944BEC0DF00001E86F4BEC74
:1015C0000DF00001E76F8A84E7B502D0000E02D06B
:1015D000010E00D0120000D01200D9CFE6FFE1CFFB
:1015E000D9FF030EE126E7C010F0E8C011F0D89053
:1015F00011321032E804FBE110C0DEFF11C0DDFF44
:10160000D950010FE96EDACFEAFFEF50100B08E175
:10161000010EDB9ADB9CDB9E00012B0EE96F16D0DE
:10162000010EDB8ADB8CDB8E00012D0EE96FDECF35
:1016300010F0DDCF11F0FF0E101A111A10C0DEFFEE
:1016400011C0DDFFDF2A010E01E3DB2ADECF10F03F
:10165000DDCF11F00A0E1102F3CF11F01002F3CF1B
:1016600010F0F4501126040ED89011321032E80414
:10167000FBE110C0DEFF11C0DDFF040EF36E020EB1
:10168000F3CFDBFFDB50000833E2DECF10F0DDCF1D
:1016900011F00A0E0B6E0C6A10C006F011C007F0B4
:1016A00020EC0DF002C010F003C011F00F0E10146A
:1016B0003009E66E020EDB50EA6AE90FE96E000EB1
:1016C000EA22E552E750EF6ED9CFE9FFDACFEAFF21
:1016D0000A0E0B6E0C6AEECF06F0EDCF07F020EC91
:1016E0000DF006C0EEFF07C0EDFF020EDB06CAD705
:1016F000300E0001EA5D07E1200EEA6F300EEB5D6F
:1017000002E1200EEB6FEDC0EEF02E0EED6FF80E45
:10171000EF6F430EF06F0D0EF16FF26B030EE15C95
:1017200002E2E16AE552E16EE552E7CFD9FF12002D
:1017300001010F6B1E0E716E0401400E096F280E21
:101740000A6F040E0B6F880E086F0401680E0E6F8F
:10175000040E0F6F400E0C6F1200D9CFE6FFE1CFE1
:10176000D9FFE652FC0EDB50400805E2400EF36E56
:10177000FC0EF3CFDBFFDF6AFC0EDB50DF5C19E20F
:10178000DF50E76EFD0EDBCFE9FFFE0EDBCFEAFF99
:10179000E750E926000EEA22EF50E66EDF50EA6AD3
:1017A000680FE96E040EEA22E552E750EF6EDF2A79
:1017B000E3D7FC0EDBCF0DF4400E04010C170C7DBB
:1017C000880E0C13E552E552E7CFD9FF1200D9CFAE
:1017D000E6FFE1CFD9FF01010F6B040108BF30D054
:1017E000FC0EDBCF10F00951D880105403E2FC0E40
:1017F00009C4DBFF01010F6BFC0EDB500F5D19E22A
:101800000F51EA6A280FE96E040EEA22EF50E66EE5
:101810000F51E76EFD0EDBCFE9FFFE0EDBCFEAFFD7
:10182000E750E926000EEA22E552E750EF6E0F2B53
:10183000E3D70401400E096F0817087D880E0813CE
:0E18400001010F5100D0E552E7CFD9FF120091
:02184E00120185
:10185000000200000008D8040C0001000102000191
:1018600009022000010100C032090400000200004A
:101870000000070501034000200705810340002008
:101880000403090434034D006900630072006F0013
:101890006300680069007000200054006500630068
:1018A00068006E006F006C006F0067007900200018
:1018B00049006E0063002E0044034D006900630080
:1018C00072006F006300680069007000200055001E
:1018D000530042002000440065006D006F002000AE
:1018E00042006F0061007200640020002800430085
:1018F00029002000320030003000370060186018E6
:0619000080188418B818DD
:0A1906002A0EF66E080EF76E000EB2
:10191000F86E00010900F550F86F0900F550F96FF5
:1019200003E1F86701D03DD00900F550F36F0900DD
:10193000F550F46F0900F550F56F09000900F550F6
:10194000E96E0900F550EA6E090009000900F5503A
:10195000F66F0900F550F76F09000900F6CFFAF0AD
:10196000F7CFFBF0F8CFFCF0F3C0F6FFF4C0F7FFC1
:10197000F5C0F8FF0001F65302E1F75307E0090054
:10198000F550EE6EF607F8E2F707F9D7FAC0F6FF62
:10199000FBC0F7FFFCC0F8FF0001F807000EF95B81
:0419A000BFD712009B
:0C19A400D9CFE6FFDACFE6FFE1CFD9FF94
:1019B000E2CFDAFF3F0EC716C66AFD0EDB50C61235
:1019C000FB0EDB50C712FC0EDB50030A09E0010AD4
:1019D00004E0020A06E1C78C04D0C78CC68801D097
:1019E000C688FD0EDB50050A03E0010A04E1928A75
:1019F0009382C79E01D09392949E9380C68AE552AB
:0A1A0000E5CFDAFFE7CFD9FF1200AF
:061A0A0005D812D839ECEA
:101A100004F0FCD712000F0EC11292829284140EB1
:101A20006F6E0101096B01010A6B01010B6B1CEF69
:101A300004F0EEEC09F06FBE02D00FEC0AF01200D9
:101A4000036A026A100EE76ED89006360736023631
:101A500003360B50025C0C50035805E30B50025E3A
:0C1A60000C50035A062AE72EF0D71200A3
:041A6C0013EE00F085
:101A700023EE00F0F86A0F9C83EC0CF050EC0DF0B4
:081A800005EC0DF0FBD712008C
:081A880000EE00F00F0EEE6A03
:061A9000EA62FDD712001E
:0A1A9600C96AC7A0FED7C9501200AC
:021AA000120032
:021AA200000042
:020000040030CA
:0100000024DB
:010001000EF0
:010002003FBE
:010003001EDE
:010005008179
:010006008178
:010008000FE8
:01000900C036
:01000A000FE6
:01000B00A054
:01000C000FE4
:01000D0040B2
:00000001FF
